:100000000C943F030C945C030C945C030C945C0311
:100010000C945C030C945C030C945C030C945C03E4
:100020000C945C030C945C030C945C030C945C03D4
:100030000C945C030C945C030C945C030C945C03C4
:100040000C945C030C945C030C945C030C945C03B4
:100050000C945C032046726565204D656D6F727966
:100060003A2000546F74616C204D656D6F72793A5F
:1000700020004572726F7220696E20676574746922
:100080006E6720636C757374657200456E64206FD3
:100090006620436C757374657220436861696E00F5
:1000A0002046696C65204372656174656421200097
:1000B0002046696C6520617070656E64656421001E
:1000C000204E6F206672656520636C75737465726F
:1000D000210020456E74657220746578742028654F
:1000E0006E642077697468207E293A00204E6F2064
:1000F0006672656520636C757374657221002043B8
:1001000072656174696E672046696C652E2E0020E9
:1001100046696C6520616C726561647920657869F7
:100120007374732C20617070656E64696E672064EF
:100130006174612E2E00496E76616C696420666977
:100140006C654E616D652E2E004572726F7220696E
:100150006E2067657474696E6720636C757374656F
:1001600072004572726F7220696E206765747469DF
:100170006E6720636C757374657200524F4F540044
:10018000444952002020200046494C4500202020B0
:100190000046696C652064656C6574656421004483
:1001A000656C6574696E672E2E0046696C65206407
:1001B0006F6573206E6F74206578697374210049D0
:1001C0006E76616C696420456E7472792E2E0044DF
:1001D00061746520557064617465204661696C6561
:1001E000642E2E00446174652055706461746564EA
:1001F0002073756365737366756C6C792100456E49
:1002000074657220446179202853756E6461793A6F
:10021000302C204D6F6E6461793A312E2E2E2920BC
:1002200028302D36293A00456E7465722044617479
:1002300065202864642F6D6D2F7979293A00496E05
:1002400076616C696420456E7472792E2E00546953
:100250006D6520557064617465204661696C6564E4
:100260002E2E0054696D652055706461746564209C
:1002700073756365737366756C6C792100456E7474
:1002800065722054696D6520696E2032346820667D
:100290006F726D61742868683A6D6D3A7373293AAC
:1002A00000556E6B6E6F776E00536174757264618A
:1002B000790046726964617900546875727364618B
:1002C00079005765646E6573646179005475657370
:1002D000646179004D6F6E6461790053756E64617D
:1002E0007900202020204461793A2000446174651F
:1002F0003A0054696D653A0020496E76616C696414
:10030000206F7074696F6E21002066696C65206EC5
:10031000616D6520746F6F206C6F6E672E2E0045C7
:100320006E7465722066696C65206E616D653A2039
:100330000052656164207375636365737366756CE1
:10034000210052656164206661696C65642E2E002F
:100350005772697465207375636365737366756C32
:1003600021005772697465206661696C65642E2E80
:100370000020456E74657220746578742028456E7F
:10038000642077697468207E293A0045726173653C
:100390006421004572617365206661696C65642E35
:1003A0002E00456E7465722074686520426C6F6320
:1003B0006B206E756D6265722028303030302D39BB
:1003C000393939293A004641543332206F70746903
:1003D0006F6E732064697361626C656421003E20F6
:1003E00053656C656374204F7074696F6E2028309C
:1003F0002D392F612F622F63293A20003E20623A67
:10040000205570646174652044617465202020204B
:1004100020202020202020202020202020633A207F
:100420005570646174652054696D65003E20393AE9
:100430002052656164205344204D656D6F727920B0
:1004400043617061636974792020202020613A2023
:1004500053686F77204461746520262054696D6568
:10046000003E20373A2057726974652046696C65F2
:10047000202020202020202020202020202020207C
:100480002020383A2044656C6574652046696C65A7
:10049000003E20353A204765742066696C65206C03
:1004A000697374202020202020202020202020205C
:1004B0002020363A20526561642046696C65003E12
:1004C00020313A2057726974652073696E676C65D4
:1004D00020426C6F636B20202020202020202020D1
:1004E000323A20526561642073696E676C65204200
:1004F0006C6F636B003E20303A204572617365205B
:10050000426C6F636B732000507265737320616E71
:1005100079206B65792E2E2E004641543332206EA1
:100520006F7420666F756E642100556E6B6E6F7709
:100530006E20534420436172642044657465637483
:10054000656421005374616E64617264204361705C
:100550006163697479204361726420285665722052
:10056000322E7829204465746563746564210048DF
:1005700069676820436170616369747920436172BF
:100580006420446574656374656421005374616E0E
:1005900064617264204361706163697479204361AE
:1005A0007264202856657220312E782920446574A3
:1005B000656374656421004361726420496E6974E7
:1005C00069616C697A6174696F6E206661696C65D6
:1005D000642E2E0053442063617264206E6F742079
:1005E00064657465637465642E2E002A2A2A2A2A9B
:1005F0002A2A2A2A2A2A2A2A2A2A2A2A2A2A2A2A5B
:100600002A2A2A2A2A2A2A2A2A2A2A2A2A2A2A2A4A
:100610002A2A2A2A2A2A2A2A2A2A2A2A2A2A2A0064
:1006200020202020446861726D616E692773206DFF
:100630006963726F5344204361726420546573741C
:10064000696E672E2E2020002A2A2A2A2A2A2A2A80
:100650002A2A2A2A2A2A2A2A2A2A2A2A2A2A2A2AFA
:100660002A2A2A2A2A2A2A2A2A2A2A2A2A2A2A2AEA
:100670002A2A2A2A2A2A2A2A2A2A2A2A000011244D
:100680001FBECFE5D4E0DEBFCDBF10E0A0E6B0E0F6
:10069000E8ECF4E302C005900D92A038B107D9F759
:1006A00012E0A0E8B0E001C01D92A33DB107E1F760
:1006B0000E94A6160C94621A0C940000EF92FF920E
:1006C0000F931F932091A5023091A602E0908D0018
:1006D000F0908E0000918F00109190006250704059
:1006E0008040904040E050E00E94211A9B01AC0104
:1006F0002E0D3F1D401F511FB901CA011F910F91BF
:10070000FF90EF9008954F925F926F927F929F9229
:10071000AF92BF92CF92DF92EF92FF920F931F930F
:10072000CF93DF935B016C01942E28013901E09097
:10073000B002F090B102AA0CBB1CCC1CDD1CAA0CB0
:10074000BB1CCC1CDD1C209195003091960000E074
:1007500010E08091A7029091A802A091A902B09107
:10076000AA02E80EF91E0A1F1B1F40E050E0C60156
:10077000B5010E94401AE20EF31E041F151F2091BE
:1007800095003091960040E050E0C601B5010E940E
:10079000401AEB018AE0A82EC801B7010E946F152C
:1007A000882311F0AA94C1F7CB55DF4F9920B9F4F3
:1007B000288139814A815B815F70B901CA01DF916B
:1007C000CF911F910F91FF90EF90DF90CF90BF904E
:1007D000AF909F907F906F905F904F900895488268
:1007E00059826A827B82C801B7010E94A51520E068
:1007F00030E040E050E0E1CFCF92DF92EF92FF9205
:100800000F931F93C82ED62E79018A016091A702FB
:100810007091A8028091A9029091AA026F5F7F4F08
:100820008F4F9F4F0E946F158091A5009091A60059
:10083000A091A700B091A800823522E5920721E699
:10084000A20721E4B20769F02FEF3FEF4FEF5FEF10
:10085000B901CA011F910F91FF90EF90DF90CF90E7
:1008600008958091890290918A02A0918B02B091A3
:100870008C02823722E7920721E4A20721E6B20721
:1008800019F78091A1029091A202A091A302B091C8
:10089000A402803020E0920725E5A2072AEAB207E9
:1008A00099F6DD20F1F02C2D213039F1E092910202
:1008B000F092920200939302109394026091A70227
:1008C0007091A8028091A9029091AA026F5F7F4F58
:1008D0008F4F9F4F0E94A5152FEF3FEF4FEF5FEF18
:1008E000B7CF8C2D813091F02091910230919202FE
:1008F0004091930250919402ABCFE0928D02F0921E
:100900008E0200938F0210939002D8CF20918D0217
:1009100030918E0240918F025091900299CFCF92E8
:10092000DF92EF92FF920F931F93CF93DF9310927A
:10093000A7021092A8021092A9021092AA0260E0E7
:1009400070E080E090E00E946F158091A500893EE4
:1009500061F18B3E51F18091A3029091A4022AEAA9
:100960008535920751F081E0DF91CF911F910F9172
:10097000FF90EF90DF90CF90089560916B0270919F
:100980006C0280916D0290916E026093A702709349
:10099000A8028093A9029093AA020E946F158091E9
:1009A000A500893E11F08B3EF1F68091B000909148
:1009B000B10090939600809395008091B20090E0F2
:1009C0009093A6028093A502C090B300D090B4008B
:1009D000D092B102C092B0028091D1009091D20029
:1009E000A091D300B091D40080939B0090939C0081
:1009F000A0939D00B0939E00C091B002D091B1022F
:100A00006091B50070E080E090E02091C9003091E5
:100A1000CA004091CB005091CC000E94211A8B015A
:100A20009C01CE01A0E0B0E04091C1005091C20015
:100A30006091C3007091C400840F951FA61FB71F5B
:100A4000800F911FA21FB31F80938D0090938E0083
:100A5000A0938F00B09390004091A5025091A60200
:100A6000EE24FF246091C5007091C6008091C700FC
:100A70009091C8006C197D098E099F09601B710B4C
:100A8000820B930B9A0140E050E00E94401A2093A1
:100A90009700309398004093990050939A0081E01A
:100AA00060E020E030E040E050E00E94FC039B0169
:100AB000AC018091970090919800A0919900B0911D
:100AC0009A0082179307A407B50728F081E0809366
:100AD000B70280E049CF1092B70280E045CF0F9374
:100AE0001F93DF93CF93CDB7DEB72B970FB6F89454
:100AF000DEBF0FBECDBFAC01FC0110E021912E3254
:100B000099F01F5F1C30D1F786E391E00E946D16CB
:100B100081E02B960FB6F894DEBF0FBECDBFCF910C
:100B2000DF911F910F910895193070F7112309F487
:100B30004FC09E012F5F3F4FF901BE016E5F7F4F97
:100B4000A12FA1506A0F711DDC010D910193E617D1
:100B5000F707D9F7183049F0612F70E2F901E60F75
:100B6000F11D70836F5F6830C9F71F5F68E0FC019B
:100B7000E10FF11D7081772311F56B3028F580E2CC
:100B8000F901E60FF11D80836F5F6B30C9F7D90162
:100B9000CE010C96F9012081322F31563A3110F4F2
:100BA000205220833196E817F907A9F72D91FA0111
:100BB0002193AF01A817B907C9F780E0AACFF901BF
:100BC000E60FF11D70831F5F6F5F6B3080F2DFCF28
:100BD00060E09E012F5F3F4FC0CF6F927F928F9258
:100BE0009F92AF92BF92CF92DF92EF92FF920F93BC
:100BF0001F93607820919700309198004091990060
:100C000050919A00621773078407950708F089C00E
:100C10005B016C01AA0CBB1CCC1CDD1CAA0CBB1C10
:100C2000CC1CDD1C3B014C01E090B002F090B10205
:100C3000209195003091960000E010E08091A7028D
:100C40009091A802A091A902B091AA02E80EF91E03
:100C50000A1F1B1F40E050E0C601B5010E94401A68
:100C6000E20EF31E041F151FC801B7010E946F1585
:100C70008091A5009091A600A091A700B091A80036
:100C8000BF700097A105B10509F44FC021E003C072
:100C90002F5F203841F1E22FF0E0EE0FFF1FEE0F43
:100CA000FF1FEB55FF4F80819181A281B381BF70FF
:100CB0000097A105B10561F7822F90E0A0E0B0E0B8
:100CC000680E791E8A1E9B1EB301C4011F910F91ED
:100CD000FF90EF90DF90CF90BF90AF909F908F905C
:100CE0007F906F90089520E830E040E050E0620E81
:100CF000731E841E951E8091970090919800A0917C
:100D00009900B0919A0020E032E040E050E0A20E5D
:100D1000B31EC41ED51E681679068A069B0608F403
:100D200083CF662477244301CFCF80E090E0A0E01A
:100D3000B0E0C6CF7F928F929F92AF92BF92CF9238
:100D4000DF92EF92FF920F931F93DF93CF93CDB774
:100D5000DEB764970FB6F894DEBF0FBECDBF782E16
:100D6000CB01BA014E010894811C911CD401E0E62C
:100D7000F0E024E101900D922150E1F7FCE0FF2E1C
:100D8000ECE2EE2E5AE0A52EB12CC12CD12C15C0D0
:100D90002930B1F08E010F0D111DA60195010E94A1
:100DA000401A6063F8016083B901CA0161157105D9
:100DB0008105910559F0FA9449F02F2D253041F71E
:100DC000FE01EF0DF11DE082FA94E4CFF72DF13032
:100DD00011F48BE48E87C4010E947A1664960FB6D4
:100DE000F894DEBF0FBECDBFCF91DF911F910F9161
:100DF000FF90EF90DF90CF90BF90AF909F908F903B
:100E00007F9008952F923F924F925F926F927F92C0
:100E10008F929F92AF92BF92CF92DF92EF92FF920A
:100E20000F931F936091A5027091A60220919700E5
:100E3000309198004091990050919A0080E090E0A4
:100E40000E94211A7B018C018AE016950795F79480
:100E5000E7948A95D1F7A0909500B09096008DE028
:100E60000E941B168AE00E941B168DE00E941B1632
:100E70008AE00E941B1683E690E00E946D169501A1
:100E800040E050E0C801B7010E94211AAB01BC014B
:100E900081E00E949A0681E060E020E030E040E0DE
:100EA00050E00E94FC035B016C01809197009091DF
:100EB0009800A0919900B0919A008A159B05AC0505
:100EC000BD0508F06CC01092B70220909B003090D6
:100ED0009C0040909D0050909E00220C331C441CAE
:100EE000551C220C331C441C551CEE24FF24870186
:100EF000AA24BB2465016090B0027090B1022091D9
:100F0000950030919600882499248091A7029091B1
:100F1000A802A091A902B091AA02680E791E8A1EA9
:100F20009B1E40E050E0C201B1010E94401A620ED7
:100F3000731E841E951EC401B3010E946F1520E02C
:100F400030E007C02C5F3F4F82E02030380709F4C3
:100F500077C0F901EB55FF4F80819181A281B38168
:100F6000BF700097A105B10529F40894A11CB11C1C
:100F7000C11CD11C0894E11CF11C011D111D8091A4
:100F8000970090919800A0919900B0919A000296D4
:100F9000A11DB11D8E159F05A007B10799F680917F
:100FA000B702882331F481E061E0A60195010E9437
:100FB000FC0381E08093B7022091A5023091A60244
:100FC00040E050E0C601B5010E94211A7B018C016E
:100FD000AAE016950795F794E794AA95D1F7A09003
:100FE0009500B09096008DE00E941B168AE00E944A
:100FF0001B1684E590E00E946D16950140E050E0DC
:10100000C801B7010E94211AAB01BC0181E00E9416
:101010009A068DE00E941B168AE00E941B161F9103
:101020000F91FF90EF90DF90CF90BF90AF909F9087
:101030008F907F906F905F904F903F902F9008958A
:1010400080E092E0A0E0B0E0280E391E4A1E5B1E50
:1010500052CFDF92EF92FF920F931F93D82EDB01B6
:10106000CA019170A070B0700097A105B10521F57B
:10107000E9E07695679557954795EA95D1F7DB01B5
:10108000CA0187709070A070B0700097A105B1057B
:10109000F9F47A018B0123E016950795F794E7940C
:1010A0002A95D1F78091B702882321F51F910F91DE
:1010B000FF90EF90DF90089539E07695679557950A
:1010C00047953A95D1F74F5F5F4F6F4F7F4FD7CF1F
:1010D0007A018B0193E016950795F794E7949A951A
:1010E000D1F70894E11CF11C011D111D8091B7027C
:1010F0008823E1F281E060E020E030E040E050E071
:101100000E94FC03DD2081F09B01AC012E193F09F8
:10111000400B510B81E061E00E94FC031F910F9195
:10112000FF90EF90DF9008959B01AC012E0D3F1DC5
:10113000401F511FEFCF2F923F924F925F926F92BD
:101140007F928F929F92AF92BF92CF92DF92EF9257
:10115000FF920F931F93DF93CF93CDB7DEB72D97F9
:101160000FB6F894DEBF0FBECDBF682ED62E772EF9
:1011700080919B0090919C00A0919D00B0919E0059
:1011800089879A87AB87BC87C62CCA942091A50211
:101190003091A602E0908D00F0908E0000918F00BB
:1011A0001091900069857A858B859C85625070408E
:1011B0008040904040E050E00E94211A4B015C01C9
:1011C0008E0C9F1CA01EB11E8091A5029091A602BC
:1011D000009709F416C12224332421018D829E82B6
:1011E000AF82B8868D819E81AF81B885820D931DB7
:1011F000A41DB51D89839A83AB83BC83BC01CD013B
:101200000E946F158091950090919600009709F4C7
:10121000E7C025EA30E08091A500882309F469C081
:1012200000E010E05901853E09F44EC0F5018385C8
:101230008F3009F449C0FC2DF23008F47BC08DE0FA
:101240000E941B168AE00E941B1688248394EE24B9
:10125000FF240DC0F501EE0DF11D80810E941B16CB
:10126000E82DEB3098F40894E11CF11C83949E2D3A
:10127000983081F780E2ED860E941B169D85F5016E
:10128000E90FF11D80810E941B16EDCF8DE891E0E2
:101290000E946D16D5011B968C911B97803109F425
:1012A0009CC0883009F494C088E891E00E946D16D3
:1012B00084E891E00E946D16F501448D558D668D90
:1012C000778D80E00E949A06005E1F4F8091950006
:1012D000909196000817190708F082C085EAA82E99
:1012E00080E0B82EA00EB11ED5018C91882309F0A4
:1012F0009ACF862D8150823008F41FC1CC24DD2482
:10130000C6012D960FB6F894DEBF0FBECDBFCF91AC
:10131000DF911F910F91FF90EF90DF90CF90BF90E2
:10132000AF909F908F907F906F905F904F903F9085
:101330002F900895D501ED2DF72D80E02D919191FD
:10134000291711F68F5F8B30C9F76501262D2130E3
:1013500009F07CC089819A81AB81BC818093B802FD
:101360009093B902A093BA02B093BB0220E030E0A0
:1013700000938700109388002093890030938A009F
:10138000D50154968D919C915597A0E0B0E0DC0179
:1013900099278827F501228D338D40E050E0822B7C
:1013A000932BA42BB52B8093B2029093B302A093FE
:1013B000B402B093B502848D958DA68DB78D8093C0
:1013C000910090939200A0939300B093940098CFD3
:1013D0008BE791E00E946D1677CF80E891E0FACF1D
:1013E0000894211C311C411C511C8091A502909134
:1013F000A602A0E0B0E0281639064A065B0608F40B
:10140000F1CE69857A858B859C8540E000E010E00F
:1014100020E030E00E94830369877A878B879C876E
:10142000673FFFEF7F07FFEF8F07FFE09F0708F0A1
:1014300065CF611571058105910509F0A7CE82E69A
:1014400091E00E946D16CC24DD245ACF8DE00E94DD
:101450001B168AE00E941B168FE991E00E946D1610
:101460008DE00E941B168AE00E941B168DE00E94F0
:101470001B168AE00E941B16D50154968D909C90F5
:101480005597AA24BB245401992488245A968D91F7
:101490009C915B97A0E0B0E0882A992AAA2ABB2AEF
:1014A00085EEF601808369817A818B819C810E941F
:1014B000A515D6015C964D915D916D917C915F97DC
:1014C00080E00E94290882E060E020E030E040E017
:1014D00050E00E94FC0386169706A806B90648F459
:1014E00082E061E0A50194010E94FC0302C0460174
:1014F0005701C501B40140E000E010E020E030E019
:101500000E9483036B017C01C501B40141E000E04E
:1015100010E020E030E00E948303B7EFCB16BFEF6E
:10152000DB06BFEFEB06BFE0FB0608F381E991E0C5
:101530000E946D16CC24DD24E3CE8AEA91E00E945D
:101540006D16CC24DD24DCCECF93DF93EC010E941A
:101550006F05882321F482E0BE010E949B08DF9181
:10156000CF9108952F923F924F925F926F927F9208
:101570008F929F92AF92BF92CF92DF92EF92FF92A3
:101580000F931F93DF93CF93CDB7DEB728970FB696
:10159000F894DEBF0FBECDBF182F6B01CB010E94A8
:1015A0006F058823D1F082E028960FB6F894DEBF4D
:1015B0000FBECDBFCF91DF911F910F91FF90EF90A4
:1015C000DF90CF90BF90AF909F908F907F906F9063
:1015D0005F904F903F902F90089581E0B6010E9458
:1015E0009B08BC01009709F48AC0113009F489C036
:1015F000DC0154962D913C91559740E050E0D90183
:101600009927882789839A83AB83BC83DB015A9609
:101610002D913C915B9740E050E089819A81AB81AC
:10162000BC81822B932BA42BB52B89839A83AB830C
:10163000BC83DB015C968D909D90AD90BC905F97D4
:101640008DE00E941B168AE00E941B168DE00E940E
:101650001B168AE00E941B16CC24DD247601209103
:10166000A5023091A60280918D0090918E00A091EC
:101670008F00B09190008D839E83AF83B88769817E
:101680007A818B819C81625070408040904040E024
:1016900050E00E94211A2B013C018D819E81AF8177
:1016A000B885480E591E6A1E7B1E8091A502909136
:1016B000A602009791F110E0C301B201610F711D04
:1016C000811D911D0E946F15222433240DC00894A2
:1016D000C11CD11CE11CF11C0894211C311C90E0A0
:1016E000291692E0390679F0F101EB55FF4F808120
:1016F0000E941B16C814D904EA04FB0440F380E0DE
:1017000053CF81E051CF1F5F2091A5023091A602F7
:10171000812F90E08217930778F269817A818B811B
:101720009C8140E000E010E020E030E00E94830374
:1017300069837A838B839C8361157105810591058B
:1017400009F08DCF89E491E00E946D1680E02CCFE6
:101750002F923F924F925F926F927F928F929F92C1
:10176000AF92BF92CF92DF92EF92FF920F931F93AF
:10177000DF93CF93CDB7DEB72C970FB6F894DEBFCB
:101780000FBECDBF2C0181E0B2010E94B20A8130B0
:1017900009F492C3823009F4E1C18DE00E941B1666
:1017A0008AE00E941B168EEF90E00E946D1682E088
:1017B00060E020E030E040E050E00E94FC03209137
:1017C0009700309198004091990050919A00261707
:1017D00037074807590740F460919B0070919C00BF
:1017E00080919D0090919E000E94ED053B014C016F
:1017F000611571058105910509F4C9C141E00FEF3B
:101800001FEF2FEF3FE00E9483039A82898213012A
:1018100010929100109292001092930010929400F6
:1018200010E0AA24BB24AA2009F034C22091A5020A
:101830003091A602C0908D00D0908E00E0908F0075
:10184000F0909000C401B30162507040804090401D
:1018500040E050E00E94211A6C0D7D1D8E1D9F1DE1
:101860006093A1007093A2008093A3009093A400C2
:10187000EE24FF24CC248DE00E941B168AE00E94F7
:101880001B1682ED90E00E946D164B2D413009F43D
:10189000DFC10E941616182F883039F5E114F104C3
:1018A000C1F388E00E941B1680E20E941B1688E0AC
:1018B0000E941B160894E108F10880919100909114
:1018C0009200A0919300B09194000197A109B109F1
:1018D0008093910090939200A0939300B093940012
:1018E0000E941616182F8830C9F20E941B16F701A5
:1018F000EB55FF4F10830894E11CF11C809191007F
:1019000090919200A0919300B09194000196A11D36
:10191000B11D8093910090939200A0939300B09397
:1019200094001D3009F43EC180E0E81682E0F8061C
:1019300008F062C1BB241E3709F0A7CF9301A401B0
:101940008091910090919200A0919300B0919400A9
:101950000197A109B1098093910090939200A093FF
:101960009300B0939400B7016150704092E06030F2
:10197000790750F4FB01EB55FF4F10826F5F7F4FEB
:10198000A2E060307A07B1F76091A1007091A200E7
:101990008091A3009091A4002F83388749875A87AC
:1019A0000E94A51582E061E02F81388549855A851E
:1019B0000E94FC030E949213882341F010928C0035
:1019C00010928B001092A00010929F00AA2009F0A4
:1019D000D0C180919B0090919C00A0919D00B091FE
:1019E0009E008B839C83AD83BE83AA2420E2B22E0B
:1019F0002091A5023091A602C0908D00D0908E005B
:101A0000E0908F00F09090006B817C818D819E81B1
:101A1000625070408040904040E050E00E94211AA7
:101A20003B014C016C0C7D1C8E1C9F1C8091A502FF
:101A30009091A602009709F4FCC110E074016301C3
:101A4000C10ED11CE11CF11CC701B6010E946F152B
:101A50008091950090919600009709F4DFC1AA202B
:101A600009F07CC0E5EAF0E01C861B8619C0853EC3
:101A7000D1F020E08B859C8580969C878B87809118
:101A8000950090919600AB85BC85A817B90708F022
:101A9000C4C1222309F062C0EB85FC85EB55FF4FE2
:101AA0008081882321F720E0822F90E0AF01480F4A
:101AB000591F840D951DDC018C91DA018C932F5FE9
:101AC0002B3091F7B3861486158620919F003091B4
:101AD000A0003787268780918B0090918C00918B96
:101AE000808B138A128A378B268B918F808F498146
:101AF0005A81558B448B338E228E80919100909128
:101B00009200A0919300B0919400848F958FA68F3E
:101B1000B78FC701B6010E94A5158DE00E941B1664
:101B20008AE00E941B168DE00E941B168AE00E942C
:101B30001B1680EA90E00E946D1640919100509132
:101B40009200609193007091940081E00E942908B6
:101B500021E090CF8BE890E00E946D162C960FB696
:101B6000F894DEBF0FBECDBFCF91DF911F910F91D3
:101B7000FF90EF90DF90CF90BF90AF909F908F90AD
:101B80007F906F905F904F903F902F9008958DE0E1
:101B90000E941B168AE00E941B168CEE90E00E94A9
:101BA0006D16DCCF50E0E51652E0F50609F46FC083
:101BB0008AE00E941B16F701EB55FF4F8AE08083F5
:101BC0000894E11CF11C8091910090919200A091E9
:101BD0009300B09194000196A11DB11D80939100D6
:101BE00090939200A0939300B093940080E0E81645
:101BF00082E0F80608F49ECEBB246091A1007091AB
:101C0000A2008091A3009091A4000E94A515C39406
:101C10008091A5029091A6022C2D30E0281739075B
:101C200009F47BC08091A1009091A200A091A30033
:101C3000B091A4000196A11DB11D8093A1009093C5
:101C4000A200A093A300B093A400EE24FF2473CEBF
:101C50008AE00E941B16F701EB55FF4F8AE0808354
:101C60000894E11CF11C8091910090919200A09148
:101C70009300B09194000196A11DB11D8093910035
:101C800090939200A0939300B093940002CEBB2453
:101C9000B394B3CF2091A5023091A602C0908D00DD
:101CA000D0908E00E0908F00F0909000C10ED11C7B
:101CB000E11CF11CC401B3016250704080409040AF
:101CC00040E050E00E94211AC60ED71EE81EF91E01
:101CD000C092A100D092A200E092A300F092A400D2
:101CE0006091A1007091A2008091A3009091A40046
:101CF0000E946F15209195003091960040E050E0D1
:101D00006091910070919200809193009091940065
:101D10000E94401A7B01C12EAECD1E3709F42AC1A4
:101D2000C401B3010E94ED056B017C0161157105D1
:101D30008105910599F0C401B30141E09701860145
:101D40000E948303C701B60141E00FEF1FEF2FEFA1
:101D50003FE00E9483033601470168CD8DE00E9479
:101D60001B168AE00E941B1680EC90E00E946D1604
:101D7000F5CE6091B8027091B9028091BA0290914B
:101D8000BB020E946F15E0918700F0918800EB552F
:101D9000FF4F138A128A80919F009091A000978B29
:101DA000868B80918B0090918C00918F808F809199
:101DB000910090919200A0919300B0919400248D95
:101DC000358D468D578D6C017D01C21AD30AE40A08
:101DD000F50A848F958FA68FB78F6091B8027091A6
:101DE000B9028091BA029091BB020E94A51581E0D0
:101DF000B701A6010E9429088DE00E941B168AE007
:101E00000E941B1680EB90E00E946D168DE00E94F0
:101E10001B168AE00E941B16A1CEA22E1F5F809186
:101E2000A5029091A602212F30E02817390708F467
:101E300005CE6B817C818D819E8140E000E010E0C9
:101E400020E030E00E9483036B017C01673FBFEF1D
:101E50007B07BFEF8B07BFE09B0718F16F3FEFEFEA
:101E60007E07EFEF8E07EFE09E0709F073CE6B81E0
:101E70007C818D819E810E94ED056B017C016B81CF
:101E80007C818D819E8141E0970186010E948303C0
:101E9000C701B60141E00FEF1FEF2FEF3FE00E94B7
:101EA0008303C114D104E104F10409F45EC0CB82C0
:101EB000DC82ED82FE829CCD8FE091E00E946D1667
:101EC0006090B2027090B3028090B4029090B5021C
:101ED000CC24DD24760107C00894C11CD11CE11C70
:101EE000F11C3B014C01C401B30140E000E010E0F3
:101EF00020E030E00E9483036F3F2FEF72072FEF47
:101F000082072FE0920741F72091A5023091A602A7
:101F10006091950070919600A0909500B090960009
:101F200080E090E040E050E00E94211AA701960175
:101F30000E94211A9B01AC01609191007091920066
:101F40008091930090919400621B730B840B950B0E
:101F5000950140E050E00E94401A122F22243324C1
:101F60001A821982AA24A3945DCC82E790E00E9491
:101F70006D16F4CD8091910090919200A091930004
:101F8000B09194000197A109B109809391009093B9
:101F90009200A0939300B09394009301A401F4CC19
:101FA00084EA86BF06B607FEFDCF91B1987F81E037
:101FB000983009F0089580E0089584EA86BF06B657
:101FC00007FEFDCF91B1987F81E0903109F008952F
:101FD00080E0089580FF11C040E450E083B984E8B8
:101FE00086BF06B607FEFDCF21B130E0287F3070F6
:101FF00081E02417350721F0089548E150E0EECF45
:1020000080E0089583B984E886BF06B607FEFDCF59
:1020100091B1987F81E0983209F0089580E00895A9
:1020200084EC86BF06B607FEFDCF81B1887F803580
:1020300011F08EE7089583B1089584E886BF06B64F
:1020400007FEFDCF81B1887F883511F08EE70895B6
:1020500083B1089584E986BF08950E94D00F81302E
:1020600071F080ED0E94EA0F813049F080E00E941B
:102070000210813021F00E942A1080E008950E9411
:102080002A1081E008951F93CF93DF930E94D00F11
:10209000813021F180ED0E94EA0F8130F9F080E07B
:1020A0000E9402108130D1F00E94DD0F8130B1F02A
:1020B00081ED0E94EA0F813089F0C0E8D0E010E0A5
:1020C00008C00E9410108E3749F089931F5F1730A7
:1020D00061F01630B1F70E941D10F5CF0E942A1052
:1020E00081E0DF91CF911F9108950E942A1080E036
:1020F000DF91CF911F9108950E944310882311F022
:1021000081E008950E9443101092C40280918000E3
:10211000982F9F7090639093C30290E080779070A7
:102120009595879595958795959587959595879597
:1021300080638093C2022AE32093C10280918100D0
:10214000982F9F7090639093C00290E0807790707A
:102150009595879595958795959587959595879567
:1021600080638093BF022093BE0280918200982FEB
:102170009F7090639093BD0290E0807390709595EE
:10218000879595958795959587959595879580637E
:102190008093BC0280E008950E944310882309F0D8
:1021A00047C01092D2021092D10280918600982FDF
:1021B0009F7090639093D00282958F70806380931C
:1021C000CF0280E38093CE0282E38093CD022FE2A0
:1021D0002093CC0280918500982F9F7090639093FC
:1021E000CB0290E080719070959587959595879535
:1021F000959587959595879580638093CA022093DE
:10220000C90280918400982F9F7090639093C802B8
:1022100090E08073907095958795959587959595A5
:1022200087959595879580638093C70280E0089590
:1022300081E008950E947C10882311F081E00895C8
:102240008DE00E941B168AE00E941B1682EF92E02E
:102250000E946D168CEB92E00E947A1680E0089541
:1022600082EE92E00E946D1680918300833079F1B6
:10227000843058F08530E1F0853080F08630E9F028
:1022800081EA92E00E946D1608958130D9F0823083
:1022900050F08CEC92E00E946D16089589EB92E06C
:1022A0000E946D1608958BED92E00E946D160895C0
:1022B00082EB92E00E946D16089589EA92E00E94F6
:1022C0006D16089584ED92E00E946D16089582ECDB
:1022D00092E00E946D1608950E94CC10882311F0A0
:1022E00081E008958DE00E941B168AE00E941B1673
:1022F0008CEE92E00E946D1687EC92E00E947A16B6
:102300000E94301180E008958091C20290E08770B1
:10231000907082959295907F9827807F9827209142
:10232000C3022F70282B209380008091BF0290E081
:102330008770907082959295907F9827807F9827DC
:102340002091C0022F70282B20938100ECEBF2E04B
:10235000808190E08370907082959295907F98270D
:10236000807F982721812F70282B209382008091D5
:10237000D10280938300E7ECF2E0808190E08370EB
:10238000907082959295907F9827807F98272181E1
:102390002F70282B20938400838190E081709070AF
:1023A00082959295907F9827807F982724812F701F
:1023B000282B2093850080858295807F91859F7052
:1023C000892B809386000895CF93DF930E94D00FCE
:1023D0008130D9F080ED0E94EA0F8130B1F080E0C9
:1023E0000E940210813089F0C0E8D0E089910E94FB
:1023F0000210813051F080E0C338D807B9F70E944D
:102400002A1080E0DF91CF9108950E942A1081E088
:10241000DF91CF910895CF93DF930E94D00F813049
:10242000D9F080ED0E94EA0F8130B1F083E00E9484
:102430000210813089F0C3E8D0E089910E94021037
:10244000813051F080E0C738D807B9F70E942A10D0
:1024500080E0DF91CF9108950E942A1081E0DF9102
:10246000CF9108951F938DE00E941B168AE00E9471
:102470001B168DE792E00E946D160E941616182F0B
:102480000E941B16812F8053833058F41093BC0296
:102490000E941616182F0E941B16812F80538A3017
:1024A00068F08DE00E941B168AE00E941B168EE3E6
:1024B00092E00E946D1681E01F9108951093BD0275
:1024C0008AE30E941B162091BC0230E0237030701A
:1024D000C901880F991F220F331F220F331F220FAC
:1024E000331F820F931F2091BD022F70820F911D09
:1024F00088319105B4F60E941616182F0E941B16FB
:10250000812F8053863068F61093BF020E94161602
:10251000182F0E941B16812F80538A3010F61093BB
:10252000C0028AE30E941B160E941616182F0E94F2
:102530001B16812F8053863008F0B3CF1093C20250
:102540000E941616182F0E941B16812F80538A3066
:1025500008F0A7CF1093C3020E9484110E94E411D7
:10256000182F8DE00E941B168AE00E941B16112373
:1025700031F483E692E00E946D1680E09DCF8EE4F8
:1025800092E00E946D1681E097CF0F931F938DE02C
:102590000E941B168AE00E941B1687E292E00E94AE
:1025A0006D160E941616182F0E941B16812F80533D
:1025B000843058F41093C7020E941616182F0E94F8
:1025C0001B16812F80538A3070F08DE00E941B16FD
:1025D0008AE00E941B168FEB91E00E946D1681E04D
:1025E0001F910F9108951093C8021F704091C70268
:1025F00050E0437050709A01220F331F440F551F53
:10260000440F551F440F551F240F351F210F311D37
:1026100020323105D4F68FE20E941B160FE20093A0
:10262000C9020E941616182F0E941B16812F805374
:10263000823058F61093CA020E941616182F0E9474
:102640001B16812F80538A3008F0BFCF1093CB0226
:102650001F704091CA0250E0437050709A01220FDF
:10266000331F440F551F440F551F440F551F240F90
:10267000351F210F311D2D3031050CF0A6CF8FE213
:102680000E941B160093CC0282E38093CD0280E36C
:102690008093CE020E941616182F0E941B16812FBF
:1026A00080538A3008F091CF1093CF020E94161603
:1026B000182F0E941B16812F80538A3008F085CF77
:1026C0001093D0028DE00E941B168AE00E941B1618
:1026D0008EEF91E00E946D160E941616182F0E9430
:1026E0001B16812F8053873008F06FCF1F70109317
:1026F000D1020E9484110E940B12182F8DE00E94BB
:102700001B168AE00E941B16112331F484EE91E01F
:102710000E946D1680E064CF8FEC91E00E946D16F0
:1027200081E05ECF0E944310882309F08BC0809126
:102730008600482F42954F7050E09A01220F331FB8
:10274000440F551F440F551F440F551F240F351FAD
:1027500090E08F7090704496E09185005E2F5295C6
:102760005F70550F452F440F440F450F7091840043
:10277000572F52955F70550F652F660F660F650FC7
:10278000820F931F82959295907F9827807F98273C
:10279000EF704E0F50E0842B952B880F991F829578
:1027A0009295907F9827807F98277F70670F262FBC
:1027B00030E0822B932B90938C0080938B00509170
:1027C0008200952F92959F70990F892F880F880FFF
:1027D000890F30918100932F92959F70990F492F07
:1027E000440F440F490F60918000962F92959F707F
:1027F000990F292F220F220F290F6F70260F5F705C
:10280000850F90E000249695879507949695879577
:102810000794982F802D3F70430F50E0842B952B09
:10282000880F991F82959295907F9827807F98278F
:10283000269530E0822B932B9093A00080939F00ED
:1028400080E0089581E00895DF92EF92FF920F9368
:102850001F93D82E7A018B018091AB02882369F4F3
:102860008D2D81518230C0F18D2D8831A9F18931B2
:1028700099F1803289F1813279F1C1988D2D80648E
:102880000E940116812F0E940116802F0E940116BE
:102890008F2D0E9401168E2D0E9401168D2D8830DD
:1028A00019F185E90E940116EE2402C0EA9469F14B
:1028B0000E9406168F3FD1F3182F882319F48D2D0F
:1028C0008A33B1F00E940616C19A812F1F910F9191
:1028D000FF90EF90DF90089589E0EE0CFF1C001F41
:1028E000111F8A95D1F7C9CF87E80E940116DCCF66
:1028F0000E94061686FD0BC01092AB020E940616BF
:102900000E9406160E940616DDCF1FEFDBCF81E086
:102910008093AB02F3CF1F93CF93DF931AE08FEF37
:102920000E9401161150D9F7C19880E040E050E0B4
:1029300060E070E00E942414C0E2D0E00AC080E0B1
:1029400040E050E060E070E00E942414219709F418
:102950006DC08130A1F7C19A8FEF0E9401168FEFF1
:102960000E94011688E04AEA51E060E070E00E94AF
:102970002414CEEFD0E00AC088E04AEA51E060E0DB
:1029800070E00E942414219709F45AC08130A1F705
:1029900012E087E340E050E060E070E00E94241421
:1029A00089E240E050E060E070E40E942414CEEF41
:1029B000D0E011C087E340E050E060E070E00E94AA
:1029C000241489E240E050E060E070E40E942414A6
:1029D000219709F440C0882369F71092AB021230A6
:1029E00021F0DF91CF911F9108958AE340E050E0FC
:1029F00060E070E00E942414CEEFD0E009C08AE3CA
:102A000040E050E060E070E00E942414219759F10A
:102A10008823A9F78091AB02813069F083E080932D
:102A2000B60280E0DF91CF911F91089581E0DF91A0
:102A3000CF911F91089582E08093B60280E0D1CFBC
:102A40008DE00E941B168AE00E941B1681E0809395
:102A5000B60211E09ECF8DE00E941B168AE00E9414
:102A60001B1682E0BECF8DE00E941B168AE00E94FA
:102A70001B161092B602CECFAF92BF92CF92DF92CA
:102A8000EF92FF920F931F937B018C0159016A0112
:102A900080E2B801A7010E942414882349F01F9105
:102AA0000F91FF90EF90DF90CF90BF90AF9008957F
:102AB000B801A70141505040604070404A0D5B1D75
:102AC0006C1D7D1D81E20E942414882341F786E25B
:102AD00040E050E060E070E00E942414E0CF1F93DB
:102AE000CF93DF93AB01BC0181E10E942414182F26
:102AF0008823F9F4C198CFEFDFEF03C02097F1F0FE
:102B000021970E9406168E3FC9F7C0E0D0E00E94D0
:102B10000616FE01EB55FF4F8083219682E0C03000
:102B2000D807A9F70E9406160E9406160E940616EC
:102B3000C19A812FDF91CF911F910895C19A11E021
:102B4000812FDF91CF911F9108951F93CF93DF9332
:102B5000AB01BC0188E10E942414182F882329F0BE
:102B6000812FDF91CF911F910895C1988EEF0E9420
:102B70000116C0E0D0E0FE01EB55FF4F80810E94BE
:102B80000116219682E0C030D807A9F78FEF0E9486
:102B900001168FEF0E9401160E940616982F9F7152
:102BA000953039F0C19A182F812FDF91CF911F9165
:102BB0000895C0E0D0E005C08FEFCF3FD807A1F067
:102BC00021960E9406168823B9F3C19A8FEF0E94BE
:102BD0000116C19801C021960E940616882359F457
:102BE0008FEFCF3FD807B9F7C19A11E0812FDF915E
:102BF000CF911F910895C19AB3CF82E58DB91EB8C8
:102C000008958FB9779BFECF8FB108958FEF8FB95D
:102C1000779BFECF8FB108951AB81BB886E880BDA8
:102C200087E189B910BC88E18AB908955F9BFECF1E
:102C30008BB18CB108955D9BFECF8CB90895DF9365
:102C4000CF93CDB7DEB72B970FB6F894DEBF0FBE8C
:102C5000CDBFDE011196E4E7F0E09BE001900D921C
:102C60009150E1F78130A9F1823079F182E0FE01E3
:102C700032960EC0DF01A80FB11D905D9C9381506C
:102C800091F094E076956795579547959A95D1F789
:102C9000942F9F709A3070F3DF01A80FB11D995CDB
:102CA0009C93815071F78981882331F05D9BFECF21
:102CB0008CB981918823D1F72B960FB6F894DEBF9B
:102CC0000FBECDBFCF91DF91089588E0FE0132960F
:102CD000DFCF84E0FE013296DBCF9C01FC01449102
:102CE000442339F00196F90124915D9BFECF2CB964
:102CF000F4CF0895FC018081882339F031965D9BE3
:102D0000FECF8CB981918823D1F708951BBA1ABAE6
:102D10008FEE88BB8FEB87BB15BA14BA12BA8EEF51
:102D200081BB0895F8941BBA1ABA8FEE88BB8FEB5B
:102D300087BB15BA14BA12BA8EEF81BB0E94FD157B
:102D40000E940C1615BE1BBE19BE08952F923F920D
:102D50004F925F926F927F928F929F92AF92BF92AB
:102D6000CF92DF92EF92FF920F931F93DF93CF9357
:102D7000CDB7DEB72E970FB6F894DEBF0FBECDBF2E
:102D800088EE93E028EB30E0F9013197F1F70197F5
:102D9000D9F70E949216929A8DE00E941B168AE043
:102DA0000E941B168DE00E941B168AE00E941B16D3
:102DB00088E496E00E946D168DE00E941B168AE062
:102DC0000E941B1680E296E00E946D168DE00E9424
:102DD0001B168AE00E941B168BEE95E00E946D1672
:102DE0008DE00E941B168AE00E941B161092B6020C
:102DF00000E010E00E948B14882361F00F5F1F4FEA
:102E00000A301105B9F7813009F416C3823009F48C
:102E10000EC3FFCF8091B602823009F403C3833022
:102E200009F4E8C2813009F4E0C28AE295E00E9428
:102E30006D1680E58DB9709A83E397E00197F1F7FD
:102E40000E948F04882309F0DAC2CC24C3943E0187
:102E50000894611C711C8E01025F1F4F81E0882E57
:102E6000912CA12CB12CB8EE4B2EB3E05B2EA4E636
:102E70002A2E312C28C0823309F4EEC1833308F0A6
:102E800077C1803309F473C2813309F41EC28DE027
:102E90000E941B168AE00E941B168DE00E941B16E2
:102EA0008AE00E941B1688EF92E00E946D168DE06A
:102EB0000E941B168AE00E941B168DE00E941B16C2
:102EC0008AE00E941B168DE00E941B168AE00E9479
:102ED0001B1688E095E00E946D168DE00E941B167F
:102EE0008AE00E941B160E9416168DE00E941B1697
:102EF0008AE00E941B1685EF94E00E946D168DE01B
:102F00000E941B168AE00E941B168FEB94E00E9421
:102F10006D168DE00E941B168AE00E941B1681E947
:102F200094E00E946D168DE00E941B168AE00E94BC
:102F30001B1681E694E00E946D168DE00E941B1620
:102F40008AE00E941B168CE294E00E946D168DE0D0
:102F50000E941B168AE00E941B168CEF93E00E94D1
:102F60006D168DE00E941B168AE00E941B168DE0F4
:102F70000E941B168AE00E941B168DE00E941B1601
:102F80008AE00E941B168EED93E00E946D160E944F
:102F90001616D82E0E941B168D2D8553853018F4D9
:102FA000CC2009F4C5C08D2D80538530F8F0809277
:102FB000AC029092AD02A092AE02B092AF028D2D03
:102FC000893309F4F7C18A3308F455CF8D2D833442
:102FD00009F4EDC1843408F0BCC0813409F4C3C0E5
:102FE000823409F054CF0E94C51267CF8DE00E9451
:102FF0001B168AE00E941B168DE00E941B168AE0B9
:103000000E941B1682EA93E00E946D160E9416161B
:10301000E82E0E941B162E2D30E02F703070249D5C
:10302000C001259D900D349D900D1124AA2797FD78
:10303000A095BA2F8093A1009093A200A093A30023
:10304000B093A4000E941616E82E0E941B166091F1
:10305000A1007091A2008091A3009091A4004E2D38
:1030600050E04F705070429D9001439D300D529D35
:10307000300D1124442737FD4095542F260F371F5C
:10308000481F591F2093A1003093A2004093A30032
:103090005093A4000E941616E82E0E941B16609101
:1030A000A1007091A2008091A3009091A4004E2DE8
:1030B00050E04F7050709A01220F331F440F551F7C
:1030C000440F551F440F551F240F351F442737FD4C
:1030D0004095542F260F371F481F591F2093A100DA
:1030E0003093A2004093A3005093A4000E941616B0
:1030F000E82E0E941B162091A1003091A200409161
:10310000A3005091A4008E2D8F70280F311D411DFA
:10311000511D2093A1003093A2004093A30050932F
:10312000A4008DE00E941B168AE00E941B163FCF70
:103130008DE00E941B168AE00E941B168DE00E9403
:103140001B168AE00E941B1686EC93E00E946D1607
:10315000BACE8D2D823609F446CF833609F427C1C5
:10316000813609F094CE0E946C110E941A11A5CEEE
:103170008D2D853309F464C0853308F488CE8DE045
:103180000E941B168AE00E941B168DE00E941B16EF
:103190008AE00E941B168FE193E00E946D16F301F6
:1031A0001192E017F107E1F7EE24FF240E941616B2
:1031B000982F8D3071F18830C1F080528F35B0F783
:1031C000892F9E870E941B16F301EE0DFF1D9E8521
:1031D00090830894E11CF11C8DE0E816F10431F7AE
:1031E00089E093E00E946D1668CEE114F104F1F2DB
:1031F00088E00E941B1680E20E941B1688E00E9455
:103200001B160894E108F1080E941616982F8D30BD
:1032100091F68DE0E816F10408F04FCE8DE00E94A3
:103220001B168AE00E941B168D2D863309F4D8C028
:103230008D2D873309F4D0C0C3010E94A40A3DCE6E
:103240008DE00E941B168AE00E941B1680E060E061
:1032500070E00E949B0831CE6091A1007091A200A5
:103260008091A3009091A4000E946F15E82E8DE03C
:103270000E941B168AE00E941B16EE2009F0A7C0D0
:10328000EE24FF240BC080810E941B160894E11CD1
:10329000F11C80E0E81682E0F80631F0F701EB550A
:1032A000FF4F80818E3779F78DE00E941B168AE0F0
:1032B0000E941B168DE00E941B168AE00E941B16BE
:1032C00081E393E00E946D16F8CD8DE00E941B16FD
:1032D0008AE00E941B1681E793E00E946D16EE249F
:1032E000FF2408C080E0E81682E0F80611F18D2D79
:1032F0008E37F9F00E941616D82E0E941B16F70181
:10330000EB55FF4FD0820894E11CF11C8D2D8D30C0
:1033100049F78AE00E941B16F701EB55FF4F8AE040
:1033200080830894E11CF11C80E0E81682E0F80636
:10333000F1F66091A1007091A2008091A30090919C
:10334000A4000E94A515E82E8DE00E941B168AE0BD
:103350000E941B168DE00E941B168AE00E941B161D
:10336000EE2081F182E693E00E946D16A6CD609179
:10337000A1007091A2008091A3009091A4002091DF
:10338000AC023091AD024091AE025091AF020E946A
:103390003C15E82E8DE00E941B168AE00E941B1649
:1033A000EE2059F083E993E00E946D1686CD0E94CD
:1033B000321283CD0E94020780CD8BE893E00E94F9
:1033C0006D167BCD80E593E00E946D1676CD82E48C
:1033D00093E00E946D1671CDC3010E94A80B6DCDC4
:1033E00080E0B3010E94B20A68CD8CE895E00E94AB
:1033F0006D161FCD84E495E00E946D161ACD8DE008
:103400000E941B168AE00E941B1689E195E00E942B
:103410006D16CC243E010894611C711C8E01025F64
:103420001F4F1CCD8FE695E00E946D1602CD87EBF5
:1034300095E00E946D16EDCC84ED95E00E946D162E
:10344000E8CC629FD001739FF001829FE00DF11DD7
:10345000649FE00DF11D929FF00D839FF00D749F0E
:10346000F00D659FF00D9927729FB00DE11DF91FBA
:10347000639FB00DE11DF91FBD01CF011124089517
:10348000A1E21A2EAA1BBB1BFD010DC0AA1FBB1F68
:10349000EE1FFF1FA217B307E407F50720F0A21BDA
:1034A000B30BE40BF50B661F771F881F991F1A9447
:1034B00069F760957095809590959B01AC01BD0171
:0834C000CF010895F894FFCF3D
:1034C8002020202020202020202020202020427979
:1034D80074657300307820202020202020200000F0
:00000001FF
