:100000000BC024C023C022C021C020C01FC01EC0FE
:100010001DC01CC01BC089C011241FBECFEDCDBFA9
:1000200010E0A0E6B0E0E4E5F2E003C0C895319648
:100030000D92AC36B107D1F710E0ACE6B0E001C0EC
:100040001D92A03EB107E1F733D002C1D9CF282FCE
:10005000392F855C90408B32910540F18AE0422F28
:10006000532F445F50404435510508F482E0422F3D
:10007000532F4C5751404237510508F483E0422F2B
:10008000532F4C5F51404C38510508F484E0422F07
:10009000532F4B5E52404D37510508F485E02157F0
:1000A00033402334310508F486E0089581E0D7CF4A
:1000B000EF92FF920F931F93CF93DF938FEF87BB46
:1000C000AAD0A7D018BA80E197E229E130E0E22F68
:1000D000F32F3197F1F70197D1F700E010E0E090AE
:1000E0006A00CAE6D8E1FF24F3948FE7E82206C04D
:1000F000E82FF0E0E05AFF4F808188BB8C2F9D2FC6
:100100000197F1F71F2580917500909176009FDF90
:1001100090917700901761F3112351F38A3041F7E2
:10012000E8BA0091770011E0E9CF1F920F920FB665
:100130000F9211242F933F935F936F937F938F932D
:100140009F93AF93BF93EF93FF9384B195B1392FF2
:1001500020E090E0822B932B9093760080937500A3
:10016000809177008F5F80937700209178003091A5
:1001700079008091750090917600820F931F909383
:100180007900809378008091780090917900E091D7
:100190007A00F0E0EE0FFF1FE458FF4F208131811D
:1001A000821B930B9093790080937800E0917A0002
:1001B000F0E08091750090917600EE0FFF1FE458FB
:1001C000FF4F9183808380917A008F5F80937A00C4
:1001D00080917A00823311F410927A008091780035
:1001E0009091790062E370E01DD070937600609387
:1001F0007500FF91EF91BF91AF919F918F917F918A
:100200006F915F913F912F910F900FBE0F901F90B4
:100210001895369A089580E487B98FE986B9359A9A
:1002200078940895AA1BBB1B51E107C0AA1FBB1FEE
:10023000A617B70710F0A61BB70B881F991F5A9572
:10024000A9F780959095682F792F8A2F9B2F089575
:04025000F894FFCF50
:0C025400C0F9A4B0999282F88098FF00D5
:00000001FF
