S00F0000736869667465722E7372656320
S113000012C02CC045C029C028C027C026C025C0A6
S113001024C058C022C021C020C01FC01EC01DC0A3
S11300201CC01BC01AC011241FBECFE5D4E0DEBF24
S1130030CDBF10E0A0E6B0E0E8EEF1E002C005902C
S11300400D92A436B107D9F710E0A4E6B0E001C0E0
S11300501D92AA36B107E1F791C0D2CF1F920F9239
S11300600FB60F9211248F939F9380916600909105
S1130070670090936300809362001092670010926F
S113008066009F918F910F900FBE0F901F9018954F
S11300901F920F920FB60F9211248F939F9380910A
S11300A064009091650090936100809360001092C9
S11300B06500109264009F918F910F900FBE0F9076
S11300C01F9018951F920F920FB60F9211242F9321
S11300D08F939F938FEF82BFAB9A8091690088239F
S11300E031F1A89A1092690080916600909167009E
S11300F02FEF8F3F920749F180916600909167003E
S113010001969093670080936600809164009091BB
S113011065002FEF8F3F920721F180916400909149
S11301206500019690936500809364001EC0A898B2
S1130130809169008F5F809369008091660090913F
S113014067002FEF8F3F9207B9F690936300809377
S1130150620080916400909165002FEF8F3F9207B9
S1130160E1F69093610080936000AB989F918F912A
S11301702F910F900FBE0F901F901895CFE5D4E0EC
S1130180DEBFCDBF11BA9FEF94BB17BA98BB15BAA7
S113019084E083BF92BF89B7816089BF8AE085BF4D
S11301A080EC8BBF789480916200909163008F5FA4
S11301B09F4F81F0AD9A80916000909161008F5FB4
S11301C09F4F81F0AC9A80916200909163008F5FA1
S11301D09F4F81F7AD9880916000909161008F5F8F
S10B01E09F4F81F7AC98DFCFBB
S10701E8FFFFFFFF13
S9030000FC
