S010000073647465737465722E73726563A6
S11300000C946E020C948B020C948B020C948B0255
S11300100C948B020C948B020C948B020C948B0228
S11300200C948B020C948B020C948B020C948B0218
S11300300C948B020C948B020C948B020C948B0208
S11300400C948B020C948B020C948B020C948B02F8
S11300500C948B022046726565204D656D6F727934
S11300603A2000546F74616C204D656D6F72793A5B
S113007020004572726F7220696E2067657474691E
S11300806E6720636C757374657200456E64206FCF
S11300906620436C757374657220436861696E00F1
S11300A02046696C65204372656174656421002093
S11300B046696C6520617070656E6465642100201A
S11300C04E6F206672656520636C7573746572216A
S11300D00020456E74657220746578742028656EFE
S11300E0642077697468207E293A00204E6F206668
S11300F072656520636C75737465722100204372A8
S1130100656174696E672046696C652E2E00202037
S113011046696C6520616C726561647920657869F3
S11301207374696E672C20617070656E64696E67A4
S113013020646174612E2E00496E76616C696420BE
S113014066696C654E616D652E2E004572726F7224
S113015020696E2067657474696E6720636C7573BB
S1130160746572004572726F7220696E20676574DF
S113017074696E6720636C757374657200524F4FB7
S11301805400444952002020200046494C45002098
S113019020200046696C652064656C657465642183
S11301A00044656C6574696E672E2E0046696C6543
S11301B020646F6573206E6F742065786973742191
S11301C00020496E76616C6964206F7074696F6E8B
S11301D021002066696C65206E616D6520746F6F07
S11301E0206C6F6E672E2E00456E746572206669F2
S11301F06C65206E616D653A200052656164207300
S113020075636365737366756C2100526561642060
S11302106661696C65642E2E00577269746520737B
S113022075636365737366756C21005772697465D1
S1130230206661696C65642E2E0020456E746572BB
S113024020746578742028456E642077697468206A
S11302507E293A00457261736564210045726173B9
S113026065206661696C65642E2E00456E74657246
S11302702074686520426C6F636B206E756D6265D7
S1130280722028303030302D39393939293A004636
S113029041543332206F7074696F6E7320646973D4
S11302A061626C656421003E2053656C6563742053
S11302B04F7074696F6E2028302D39293A20003E22
S11302C02039203A2052656164205344204D656DE5
S11302D06F72792043617061636974792028546F67
S11302E074616C2F4672656529003E2038203A20DF
S11302F044656C6574652046696C65003E20372052
S11303003A2057726974652046696C65003E203650
S1130310203A20526561642046696C65003E2035B0
S1130320203A204765742066696C65206C69737493
S1130330003E2032203A20526561642073696E6762
S11303406C6520426C6F636B003E2031203A20576D
S1130350726974652073696E676C6520426C6F63A3
S11303606B003E2030203A20457261736520426C58
S11303706F636B7300507265737320616E79206BC9
S113038065792E2E2E004641543332206E6F742030
S1130390666F756E642100556E6B6E6F776E2053B9
S11303A04420436172642044657465637465642108
S11303B0005374616E6461726420436170616369A7
S11303C074792043617264202856657220322E7835
S11303D0292044657465637465642100486967680D
S11303E020436170616369747920436172642044BD
S11303F06574656374656421005374616E6461722D
S1130400642043617061636974792043617264207C
S11304102856657220312E782920446574656374EA
S1130420656421004361726420496E697469616C7A
S1130430697A6174696F6E206661696C65642E2ED9
S11304400053442063617264206E6F742064657489
S113045065637465642E2E002A2A2A2A2A2A2A2AE7
S11304602A2A2A2A2A2A2A2A2A2A2A2A2A2A2A2AE8
S11304702A2A2A2A2A2A2A2A2A2A2A2A2A2A2A2AD8
S11304802A2A2A2A2A0020202020446861726D61C9
S11304906E692773206D6963726F534420436172E0
S11304A0642054657374696E672E2E2020002A2AF6
S11304B02A2A2A2A2A2A2A2A2A2A2A2A2A2A2A2A98
S11304C02A2A2A2A2A2A2A2A2A2A2A2A2A2A2A2A88
S11304D02A2A2A2A2A2A2A2A2A2A2A0011241FBE38
S11304E0CFE5D4E0DEBFCDBF10E0A0E6B0E0EEE3A0
S11304F0FAE202C005900D92A038B107D9F712E0D4
S1130500A0E8B0E001C01D92A13BB107E1F70E9451
S11305107C110C941D150C940000EF92FF920F9324
S11305201F9320919A0230919B02E0908400F090F6
S113053085000091860010918700625070408040D1
S1130540904040E050E00E94DC149B01AC012E0D71
S11305503F1D401F511FB901CA011F910F91FF9008
S1130560EF9008954F925F926F927F929F92AF9215
S1130570BF92CF92DF92EF92FF920F931F93CF938C
S1130580DF935B016C01942E28013901E090A502F0
S1130590F090A602AA0CBB1CCC1CDD1CAA0CBB1C34
S11305A0CC1CDD1C20918C0030918D0000E010E00B
S11305B080919C0290919D02A0919E02B0919F0215
S11305C0E80EF91E0A1F1B1F40E050E0C601B501EA
S11305D00E94FB14E20EF31E041F151F20918C00D1
S11305E030918D0040E050E0C601B5010E94FB143B
S11305F0EB018AE0A82EC801B7010E9445108823A8
S113060011F0AA94C1F7C656DF4F9920B9F4288196
S113061039814A815B815F70B901CA01DF91CF9151
S11306201F910F91FF90EF90DF90CF90BF90AF900C
S11306309F907F906F905F904F9008954882598269
S11306406A827B82C801B7010E947B1020E030E0FF
S113065040E050E0E1CFCF92DF92EF92FF920F9310
S11306601F93C82ED62E79018A0160919C02709145
S11306709D0280919E0290919F026F5F7F4F8F4FEA
S11306809F4F0E94451080919A0090919B00A091E9
S11306909C00B0919D00823522E5920721E6A207D5
S11306A021E4B20769F02FEF3FEF4FEF5FEFB9019D
S11306B0CA011F910F91FF90EF90DF90CF900895A2
S11306C080917E0290917F02A0918002B09181027C
S11306D0823722E7920721E4A20721E6B20719F73D
S11306E08091960290919702A0919802B0919902FC
S11306F0803020E0920725E5A2072AEAB20799F69E
S1130700DD20F1F02C2D213039F1E0928602F092B7
S11307108702009388021093890260919C02709171
S11307209D0280919E0290919F026F5F7F4F8F4F39
S11307309F4F0E947B102FEF3FEF4FEF5FEFB7CF3C
S11307408C2D813091F02091860230918702409166
S1130750880250918902ABCFE0928202F092830228
S11307600093840210938502D8CF209182023091A5
S11307708302409184025091850299CFCF92DF92F7
S1130780EF92FF920F931F93CF93DF9310929C02EB
S113079010929D0210929E0210929F0260E070E0FF
S11307A080E090E00E94451080919A00893E61F1BA
S11307B08B3E51F180919802909199022AEA8535F5
S11307C0920751F081E0DF91CF911F910F91FF903B
S11307D0EF90DF90CF900895609160027091610274
S11307E0809162029091630260939C0270939D02D7
S11307F080939E0290939F020E94451080919A00DC
S1130800893E11F08B3EF1F68091A5009091A600EF
S113081090938D0080938C008091A70090E090933A
S11308209B0280939A02C090A800D090A900D09215
S1130830A602C092A5028091C6009091C700A09123
S1130840C800B091C9008093920090939300A09344
S11308509400B0939500C091A502D091A602609136
S1130860AA0070E080E090E02091BE003091BF00CB
S11308704091C0005091C1000E94DC148B019C0186
S1130880CE01A0E0B0E04091B6005091B700609175
S1130890B8007091B900840F951FA61FB71F800F71
S11308A0911FA21FB31F8093840090938500A0938F
S11308B08600B093870040919A0250919B02EE24E7
S11308C0FF246091BA007091BB008091BC009091AC
S11308D0BD006C197D098E099F09601B710B820B89
S11308E0930B9A0140E050E00E94FB1420938E0089
S11308F030938F00409390005093910081E060E02A
S113090020E030E040E050E00E942B039B01AC016A
S113091080918E0090918F00A0919000B0919100F1
S113092082179307A407B50728F081E08093AC02EF
S113093080E049CF1092AC0280E045CF0F931F9323
S1130940DF93CF93CDB7DEB72B970FB6F894DEBF06
S11309500FBECDBFAC01FC0110E021912E3299F005
S11309601F5F1C30D1F788E391E00E94431181E0BE
S11309702B960FB6F894DEBF0FBECDBFCF91DF919B
S11309801F910F910895193070F7112309F44FC086
S11309909E012F5F3F4FF901BE016E5F7F4FA12F74
S11309A0A1506A0F711DDC010D910193E617F70741
S11309B0D9F7183049F0612F70E2F901E60FF11D03
S11309C070836F5F6830C9F71F5F68E0FC01E10F57
S11309D0F11D7081772311F56B3028F580E2F90160
S11309E0E60FF11D80836F5F6B30C9F7D901CE012B
S11309F00C96F9012081322F31563A3110F42052ED
S1130A0020833196E817F907A9F72D91FA0121936C
S1130A10AF01A817B907C9F780E0AACFF901E60F1B
S1130A20F11D70831F5F6F5F6B3080F2DFCF60E07A
S1130A309E012F5F3F4FC0CF6F927F928F929F9204
S1130A40AF92BF92CF92DF92EF92FF920F931F93D8
S1130A50607820918E0030918F00409190005091E9
S1130A609100621773078407950708F089C05B013A
S1130A706C01AA0CBB1CCC1CDD1CAA0CBB1CCC1C22
S1130A80DD1C3B014C01E090A502F090A6022091F0
S1130A908C0030918D0000E010E080919C029091D8
S1130AA09D02A0919E02B0919F02E80EF91E0A1FBA
S1130AB01B1F40E050E0C601B5010E94FB14E20E8A
S1130AC0F31E041F151FC801B7010E944510809131
S1130AD09A0090919B00A0919C00B0919D00BF70E2
S1130AE00097A105B10509F44FC021E003C02F5FB1
S1130AF0203841F1E22FF0E0EE0FFF1FEE0FFF1F51
S1130B00E656FF4F80819181A281B381BF70009727
S1130B10A105B10561F7822F90E0A0E0B0E0680E76
S1130B20791E8A1E9B1EB301C4011F910F91FF9071
S1130B30EF90DF90CF90BF90AF909F908F907F9079
S1130B406F90089520E830E040E050E0620E731E9C
S1130B50841E951E80918E0090918F00A09190002C
S1130B60B091910020E032E040E050E0A20EB31ECC
S1130B70C41ED51E681679068A069B0608F483CF20
S1130B80662477244301CFCF80E090E0A0E0B0E07A
S1130B90C6CF7F928F929F92AF92BF92CF92DF92F5
S1130BA0EF92FF920F931F93DF93CF93CDB7DEB7EE
S1130BB064970FB6F894DEBF0FBECDBF782ECB017D
S1130BC0BA014E010894811C911CD401E0E6F0E0C6
S1130BD024E101900D922150E1F7FCE0FF2EECE2BC
S1130BE0EE2E5AE0A52EB12CC12CD12C15C02930E3
S1130BF0B1F08E010F0D111DA60195010E94FB1489
S1130C006063F8016083B901CA016115710581054A
S1130C10910559F0FA9449F02F2D253041F7FE0142
S1130C20EF0DF11DE082FA94E4CFF72DF13011F4C9
S1130C308BE48E87C4010E94501164960FB6F89419
S1130C40DEBF0FBECDBFCF91DF911F910F91FF90FB
S1130C50EF90DF90CF90BF90AF909F908F907F9058
S1130C6008952F923F924F925F926F927F928F924C
S1130C709F92AF92BF92CF92DF92EF92FF920F9327
S1130C801F9360919A0270919B0220918E00309183
S1130C908F00409190005091910080E090E00E947C
S1130CA0DC147B018C018AE016950795F794E79490
S1130CB08A95D1F7A0908C00B0908D008DE00E94B1
S1130CC0F1108AE00E94F1108DE00E94F1108AE098
S1130CD00E94F11083E690E00E944311950140E0E8
S1130CE050E0C801B7010E94DC14AB01BC0181E0F3
S1130CF00E94C90581E060E020E030E040E050E07F
S1130D000E942B035B016C0180918E0090918F00F7
S1130D10A0919000B09191008A159B05AC05BD058A
S1130D2008F06CC01092AC022090920030909300B6
S1130D304090940050909500220C331C441C551C88
S1130D40220C331C441C551CEE24FF248701AA24C6
S1130D50BB2465016090A5027090A60220918C00CE
S1130D6030918D008824992480919C0290919D0259
S1130D70A0919E02B0919F02680E791E8A1E9B1E4E
S1130D8040E050E0C201B1010E94FB14620E731EE8
S1130D90841E951EC401B3010E94451020E030E07A
S1130DA007C02C5F3F4F82E02030380709F477C03A
S1130DB0F901E656FF4F80819181A281B381BF7012
S1130DC00097A105B10529F40894A11CB11CC11C0C
S1130DD0D11C0894E11CF11C011D111D80918E0091
S1130DE090918F00A0919000B09191000296A11D66
S1130DF0B11D8E159F05A007B10799F68091AC022D
S1130E00882331F481E061E0A60195010E942B035F
S1130E1081E08093AC0220919A0230919B0240E0E1
S1130E2050E0C601B5010E94DC147B018C01AAE0EC
S1130E3016950795F794E794AA95D1F7A0908C009E
S1130E40B0908D008DE00E94F1108AE00E94F110B4
S1130E5084E590E00E944311950140E050E0C80110
S1130E60B7010E94DC14AB01BC0181E00E94C905FA
S1130E708DE00E94F1108AE00E94F1101F910F9101
S1130E80FF90EF90DF90CF90BF90AF909F908F90A6
S1130E907F906F905F904F903F902F90089580E0E7
S1130EA092E0A0E0B0E0280E391E4A1E5B1E52CF2D
S1130EB0DF92EF92FF920F931F93D82EDB01CA01AA
S1130EC09170A070B0700097A105B10521F5E9E01B
S1130ED07695679557954795EA95D1F7DB01CA0151
S1130EE087709070A070B0700097A105B105F9F4F7
S1130EF07A018B0123E016950795F794E7942A95D8
S1130F00D1F78091AC02882321F51F910F91FF90B6
S1130F10EF90DF90089539E076956795579547955A
S1130F203A95D1F74F5F5F4F6F4F7F4FD7CF7A011D
S1130F308B0193E016950795F794E7949A95D1F76A
S1130F400894E11CF11C011D111D8091AC02882341
S1130F50E1F281E060E020E030E040E050E00E9417
S1130F602B03DD2081F09B01AC012E193F09400BBE
S1130F70510B81E061E00E942B031F910F91FF90C0
S1130F80EF90DF9008959B01AC012E0D3F1D401F93
S1130F90511FEFCF2F923F924F925F926F927F92A9
S1130FA08F929F92AF92BF92CF92DF92EF92FF9275
S1130FB00F931F93DF93CF93CDB7DEB72D970FB663
S1130FC0F894DEBF0FBECDBF682ED62E772E80914B
S1130FD0920090919300A0919400B091950089871C
S1130FE09A87AB87BC87C62CCA9420919A02309109
S1130FF09B02E0908400F09085000091860010919F
S1131000870069857A858B859C8562507040804015
S1131010904040E050E00E94DC144B015C018E0CD7
S11310209F1CA01EB11E80919A0290919B02009772
S113103009F416C12224332421018D829E82AF82B9
S1131040B8868D819E81AF81B885820D931DA41DC4
S1131050B51D89839A83AB83BC83BC01CD010E94F7
S1131060451080918C0090918D00009709F4E7C0A1
S11310702AE930E080919A00882309F469C000E0ED
S113108010E05901853E09F44EC0F50183858F3087
S113109009F449C0FC2DF23008F47BC08DE00E94B5
S11310A0F1108AE00E94F11088248394EE24FF2436
S11310B00DC0F501EE0DF11D80810E94F110E82DA7
S11310C0EB3098F40894E11CF11C83949E2D983025
S11310D081F780E2ED860E94F1109D85F501E90F0C
S11310E0F11D80810E94F110EDCF8FE891E00E9404
S11310F04311D5011B968C911B97803109F49CC038
S1131100883009F494C08AE891E00E94431186E88B
S113111091E00E944311F501448D558D668D778DC4
S113112080E00E94C905005E1F4F80918C00909161
S11311308D000817190708F082C08AE9A82E80E0FC
S1131140B82EA00EB11ED5018C91882309F09ACF38
S1131150862D8150823008F41FC1CC24DD24C601C1
S11311602D960FB6F894DEBF0FBECDBFCF91DF91A1
S11311701F910F91FF90EF90DF90CF90BF90AF90B1
S11311809F908F907F906F905F904F903F902F90A3
S11311900895D501ED2DF72D80E02D91919129171A
S11311A011F68F5F8B30C9F76501262D213009F0C8
S11311B07CC089819A81AB81BC818093AD0290937C
S11311C0AE02A093AF02B093B00220E030E00093EF
S11311D08000109381002093820030938300D50116
S11311E054968D919C915597A0E0B0E0DC0199272D
S11311F08827F501228D338D40E050E0822B932B1C
S1131200A42BB52B8093A7029093A802A093A902C4
S1131210B093AA02848D958DA68DB78D8093880096
S113122090938900A0938A00B0938B0098CF8DE7A8
S113123091E00E94431177CF82E891E0FACF0894BD
S1131240211C311C411C511C80919A0290919B02DB
S1131250A0E0B0E0281639064A065B0608F4F1CE91
S113126069857A858B859C8540E000E010E020E06C
S113127030E00E94B20269877A878B879C87673F38
S1131280FFEF7F07FFEF8F07FFE09F0708F065CFB1
S1131290611571058105910509F0A7CE84E691E0F9
S11312A00E944311CC24DD245ACF8DE00E94F1101A
S11312B08AE00E94F11081EA91E00E9443118DE0DE
S11312C00E94F1108AE00E94F1108DE00E94F1105A
S11312D08AE00E94F110D50154968D909C90559708
S11312E0AA24BB245401992488245A968D919C9154
S11312F05B97A0E0B0E0882A992AAA2ABB2A85EE47
S1131300F601808369817A818B819C810E947B10A4
S1131310D6015C964D915D916D917C915F9780E0D3
S11313200E94580782E060E020E030E040E050E0B6
S11313300E942B0386169706A806B90648F482E095
S113134061E0A50194010E942B0302C046015701EC
S1131350C501B40140E000E010E020E030E00E946C
S1131360B2026B017C01C501B40141E000E010E070
S113137020E030E00E94B202B7EFCB16BFEFDB06ED
S1131380BFEFEB06BFE0FB0608F383E991E00E94A0
S11313904311CC24DD24E3CE8CEA91E00E94431176
S11313A0CC24DD24DCCECF93DF93EC010E949E0499
S11313B0882321F482E0BE010E94CA07DF91CF9105
S11313C008952F923F924F925F926F927F928F92E5
S11313D09F92AF92BF92CF92DF92EF92FF920F93C0
S11313E01F93DF93CF93CDB7DEB728970FB6F8944A
S11313F0DEBF0FBECDBF182F6B01CB010E949E0430
S11314008823D1F082E028960FB6F894DEBF0FBE91
S1131410CDBFCF91DF911F910F91FF90EF90DF909F
S1131420CF90BF90AF909F908F907F906F905F9080
S11314304F903F902F90089581E0B6010E94CA0713
S1131440BC01009709F48AC0113009F489C0DC0199
S113145054962D913C91559740E050E0D90199273D
S1131460882789839A83AB83BC83DB015A962D91A9
S11314703C915B9740E050E089819A81AB81BC81CB
S1131480822B932BA42BB52B89839A83AB83BC83A8
S1131490DB015C968D909D90AD90BC905F978DE044
S11314A00E94F1108AE00E94F1108DE00E94F11078
S11314B08AE00E94F110CC24DD24760120919A0266
S11314C030919B028091840090918500A0918600C8
S11314D0B09187008D839E83AF83B88769817A81B9
S11314E08B819C81625070408040904040E050E08D
S11314F00E94DC142B013C018D819E81AF81B88553
S1131500480E591E6A1E7B1E80919A0290919B027E
S1131510009791F110E0C301B201610F711D811DAB
S1131520911D0E944510222433240DC00894C11C2F
S1131530D11CE11CF11C0894211C311C90E02916DB
S113154092E0390679F0F101E656FF4F80810E945E
S1131550F110C814D904EA04FB0440F380E053CF2B
S113156081E051CF1F5F20919A0230919B02812F1D
S113157090E08217930778F269817A818B819C814C
S113158040E000E010E020E030E00E94B202698315
S11315907A838B839C83611571058105910509F01C
S11315A08DCF8BE491E00E94431180E02CCF2F92E9
S11315B03F924F925F926F927F928F929F92AF92DF
S11315C0BF92CF92DF92EF92FF920F931F93DF931C
S11315D0CF93CDB7DEB760970FB6F894DEBF0FBEDA
S11315E0CDBF2C0181E0B2010E94E109813009F4F0
S11315F091C3823009F4EBC18DE00E94F1108AE0BE
S11316000E94F1108DEF90E00E94431182E060E0AF
S113161020E030E040E050E00E942B0320918E0057
S113162030918F0040919000509191002617370718
S11316304807590740F4609192007091930080919B
S11316409400909195000E941C053B014C0161158A
S113165071058105910509F4D3C141E00FEF1FEF36
S11316602FEF3FE00E94B2029A86898613011092FE
S113167088001092890010928A0010928B001982BF
S1131680BB245981552309F03DC220919A0230911F
S11316909B02C0908400D0908500E0908600F0907A
S11316A08700C401B301625070408040904040E024
S11316B050E00E94DC146C0D7D1D8E1D9F1D6093F7
S11316C09600709397008093980090939900EE246D
S11316D0FF24CC248DE00E94F1108AE00E94F110D6
S11316E081ED90E00E9443110B2D5701013009F464
S11316F0E8C10E94EC10182F883039F5A114B10408
S1131700C1F388E00E94F11080E20E94F11088E0A9
S11317100E94F1100894A108B1088091880090916A
S11317208900A0918A00B0918B000197A109B109A9
S11317308093880090938900A0938A00B0938B00D3
S11317400E94EC10182F8830C9F20E94F110F501A4
S1131750E656FF4F10830894A11CB11C2091880009
S11317603091890040918A0050918B002F5F3F4F48
S11317704F4F5F4F209388003093890040938A0035
S113178050938B001D3009F446C190E0A91692E0F5
S1131790B90608F06AC100E01E3709F0A7CF750149
S11317A09301A4018091880090918900A0918A00FE
S11317B0B0918B000197A109B1098093880090939F
S11317C08900A0938A00B0938B000894E108F10883
S11317D0A0E0EA16A2E0FA0658F4B701FB01E656C7
S11317E0FF4F10826F5F7F4FB2E060307B07B1F72D
S11317F06091960070919700809198009091990063
S11318002E873B874C875D870E947B1082E061E0D6
S11318102E853B854C855D850E942B03E981EE2353
S113182009F0E0C18091920090919300A0919400FE
S1131830B09195008D839E83AF83B887882440E25E
S1131840942E34E8A32E36E9B32E27E3622E2AE33E
S1131850722E20919A0230919B02C0908400D09005
S11318608500E0908600F09087006D817E818F81F5
S11318709885625070408040904040E050E00E9463
S1131880DC14DC01CB018C0D9D1DAE1DBF1D8983B5
S11318909A83AB83BC8380919A0290919B020097B8
S11318A009F4F2C110E0282D812E09851A85C9801A
S11318B0DA80EB80FC80C80CD11CE11CF11CC70150
S11318C0B6012E870E94451080918C0090918D0066
S11318D02E85009709F4CCC1EAE9F0E0222309F04F
S11318E017C280E090E0988B8F8718C0853EC9F0BE
S11318F020E04F855889405E5F4F588B4F87809119
S11319008C0090918D004817590708F0B1C1EF85FC
S1131910F889E656FF4F222309F0FAC18081882313
S113192029F720E0AF016F857889822F90E0DA01F2
S1131930A80FB91F840D951DFC0180818C932F5F26
S11319402B3099F7FA01788B6F8793861486158666
S1131950B786A686718A608A738A628AB78AA68ADB
S1131960718E608E158B048B338E228E809188004D
S113197090918900A0918A00B0918B00848F958FFB
S1131980A68FB78FC701B6010E947B108DE00E941D
S1131990F1108AE00E94F1108DE00E94F1108AE0BB
S11319A00E94F11080EA90E00E9443114091880067
S11319B05091890060918A0070918B0081E00E94AF
S11319C0580721E096CF8BE890E00E94431160967F
S11319D00FB6F894DEBF0FBECDBFCF91DF911F913C
S11319E00F91FF90EF90DF90CF90BF90AF909F90BA
S11319F08F907F906F905F904F903F902F900895BD
S1131A008DE00E94F1108AE00E94F1108BEE90E0CC
S1131A100E944311DCCF80E0A81682E0B80609F4E6
S1131A206FC08AE00E94F110F501E656FF4F8AE08C
S1131A3080830894A11CB11C809188009091890036
S1131A40A0918A00B0918B000196A11DB11D8093D5
S1131A50880090938900A0938A00B0938B0090E053
S1131A60A91692E0B90608F496CE00E060919600BB
S1131A707091970080919800909199000E947B103A
S1131A80C39480919A0290919B022C2D30E02817E8
S1131A90390709F47AC08091960090919700A0913B
S1131AA09800B09199000196A11DB11D80939600F4
S1131AB090939700A0939800B0939900AA24BB2414
S1131AC06BCE8AE00E94F110F501E656FF4F8AE0E2
S1131AD080830894A11CB11C809188009091890096
S1131AE0A0918A00B0918B000196A11DB11D809335
S1131AF0880090938900A0938A00B0938B00F9CD5D
S1131B0001E0B4CF20919A0230919B02C0908400EE
S1131B10D0908500E0908600F0908700CA0CD11C1C
S1131B20E11CF11CC401B30162507040804090403C
S1131B3040E050E00E94DC14C60ED71EE81EF91ED9
S1131B40C0929600D0929700E0929800F09299008B
S1131B5060919600709197008091980090919900FF
S1131B600E94451020918C0030918D0040E050E09F
S1131B70609188007091890080918A0090918B0017
S1131B800E94FB147B01CA2CA5CDB02E1E3709F48C
S1131B901BC1C401B3010E941C056B017C016115CA
S1131BA071058105910599F0C401B30141E09701E4
S1131BB086010E94B202C701B60141E00FEF1FEF98
S1131BC02FEF3FE00E94B202360147015ECD8DE067
S1131BD00E94F1108AE00E94F1108FEB90E00E94C5
S1131BE04311F5CE6091AD027091AE028091AF02C7
S1131BF09091B0020E944510E0918000F091810024
S1131C00E656FF4F8091880090918900A0918A0048
S1131C10B0918B00248D358D468D578D6C017D01DF
S1131C20C21AD30AE40AF50A848F958FA68FB78F58
S1131C306091AD027091AE028091AF029091B002BA
S1131C400E947B1081E0B701A6010E9458078DE035
S1131C500E94F1108AE00E94F1108FEA90E00E9445
S1131C6043118DE00E94F1108AE00E94F110AFCE82
S1131C70839440919A0250919B02882D90E084179E
S1131C80950708F414CE822E6D817E818F8198850C
S1131C9040E000E010E020E030E00E94B2026B017E
S1131CA07C01673F5FEF75075FEF85075FE095078E
S1131CB020F18FEFC8168FEFD8068FEFE8068FE07C
S1131CC0F80609F080CE6D817E818F8198850E940F
S1131CD01C056B017C016D817E818F81988541E0BB
S1131CE0970186010E94B202C701B60141E00FEFDD
S1131CF01FEF2FEF3FE00E94B202C114D104E104B0
S1131D00F10409F45CC0CD82DE82EF82F886A1CDB5
S1131D1010825DCE8EE091E00E9443116090A70294
S1131D207090A8028090A9029090AA02CC24DD248D
S1131D30760107C00894C11CD11CE11CF11C3B01B5
S1131D404C01C401B30140E000E010E020E030E0C9
S1131D500E94B2026F3F2FEF72072FEF82072FE02E
S1131D60920741F720919A0230919B0260918C0076
S1131D7070918D0000918C0010918D0080E090E0B6
S1131D8040E050E00E94DC14A70196010E94DC149C
S1131D909B01AC01609188007091890080918A0058
S1131DA090918B00621B730B840B950B980140E0A0
S1131DB050E00E94FB14A22E41E0498361CC82E7EB
S1131DC090E00E94431103CE809188009091890095
S1131DD0A0918A00B0918B000197A109B109809369
S1131DE0880090938900A0938A00B0938B0093019C
S1131DF0A401FECCDF92EF92FF920F931F93D82E93
S1131E007A018B018091A002882369F48D2D815180
S1131E108230C0F18D2D8831A9F1893199F1803258
S1131E2089F1813279F1C1988D2D80640E94D71097
S1131E30812F0E94D710802F0E94D7108F2D0E94CF
S1131E40D7108E2D0E94D7108D2D883019F185E979
S1131E500E94D710EE2402C0EA9469F10E94DC10BB
S1131E608F3FD1F3182F882319F48D2D8A33B1F0C5
S1131E700E94DC10C19A812F1F910F91FF90EF9067
S1131E80DF90089589E0EE0CFF1C001F111F8A9556
S1131E90D1F7C9CF87E80E94D710DCCF0E94DC10AD
S1131EA086FD0BC01092A0020E94DC100E94DC1080
S1131EB00E94DC10DDCF1FEFDBCF81E08093A00216
S1131EC0F3CF1F93CF93DF931AE08FEF0E94D710C5
S1131ED01150D9F7C19880E040E050E060E070E034
S1131EE00E94FA0EC0E2D0E00AC080E040E050E078
S1131EF060E070E00E94FA0E219709F46DC0813011
S1131F00A1F7C19A8FEF0E94D7108FEF0E94D710CC
S1131F1088E04AEA51E060E070E00E94FA0ECEEFF9
S1131F20D0E00AC088E04AEA51E060E070E00E9434
S1131F30FA0E219709F45AC08130A1F712E087E321
S1131F4040E050E060E070E00E94FA0E89E240E078
S1131F5050E060E070E40E94FA0ECEEFD0E011C0D1
S1131F6087E340E050E060E070E00E94FA0E89E20E
S1131F7040E050E060E070E40E94FA0E219709F41A
S1131F8040C0882369F71092A002123021F0DF913B
S1131F90CF911F9108958AE340E050E060E070E043
S1131FA00E94FA0ECEEFD0E009C08AE340E050E090
S1131FB060E070E00E94FA0E219759F18823A9F796
S1131FC08091A002813069F083E08093AB0280E0CD
S1131FD0DF91CF911F91089581E0DF91CF911F91FF
S1131FE0089582E08093AB0280E0D1CF8DE00E941F
S1131FF0F1108AE00E94F11081E08093AB0211E0BD
S11320009ECF8DE00E94F1108AE00E94F11082E0E0
S1132010BECF8DE00E94F1108AE00E94F110109270
S1132020AB02CECFAF92BF92CF92DF92EF92FF92EC
S11320300F931F937B018C0159016A0180E2B8015F
S1132040A7010E94FA0E882349F01F910F91FF9077
S1132050EF90DF90CF90BF90AF900895B801A701A3
S113206041505040604070404A0D5B1D6C1D7D1D09
S113207081E20E94FA0E882341F786E240E050E0B4
S113208060E070E00E94FA0EE0CF1F93CF93DF93DD
S1132090AB01BC0181E10E94FA0E182F8823F9F4E8
S11320A0C198CFEFDFEF03C02097F1F021970E9492
S11320B0DC108E3FC9F7C0E0D0E00E94DC10FE01C6
S11320C0E656FF4F8083219682E0C030D807A9F7F7
S11320D00E94DC100E94DC100E94DC10C19A812F47
S11320E0DF91CF911F910895C19A11E0812FDF9163
S11320F0CF911F9108951F93CF93DF93AB01BC0140
S113210088E10E94FA0E182F882329F0812FDF918D
S1132110CF911F910895C1988EEF0E94D710C0E00F
S1132120D0E0FE01E656FF4F80810E94D710219631
S113213082E0C030D807A9F78FEF0E94D7108FEF45
S11321400E94D7100E94DC10982F9F71953039F0AF
S1132150C19A182F812FDF91CF911F910895C0E06C
S1132160D0E005C08FEFCF3FD807A1F021960E94A1
S1132170DC108823B9F3C19A8FEF0E94D710C1985D
S113218001C021960E94DC10882359F48FEFCF3FC1
S1132190D807B9F7C19A11E0812FDF91CF911F9130
S11321A00895C19AB3CF82E58DB91EB808958FB949
S11321B0779BFECF8FB108958FEF8FB9779BFECFBA
S11321C08FB108951AB81BB886E880BD8FE289B92B
S11321D010BC88E18AB908955F9BFECF8BB18CB1A6
S11321E008955D9BFECF8CB90895DF93CF93CDB74F
S11321F0DEB72B970FB6F894DEBF0FBECDBFDE015E
S11322001196E4E7F0E09BE001900D929150E1F724
S11322108130A9F1823079F182E0FE0132960EC05C
S1132220DF01A80FB11D905D9C93815091F094E063
S113223076956795579547959A95D1F7942F9F7002
S11322409A3070F3DF01A80FB11D995C9C93815003
S113225071F78981882331F05D9BFECF8CB9819120
S11322608823D1F72B960FB6F894DEBF0FBECDBFEF
S1132270CF91DF91089588E0FE013296DFCF84E0AC
S1132280FE013296DBCF9C01FC014491442339F0DA
S11322900196F90124915D9BFECF2CB9F4CF0895EA
S11322A0FC018081882339F031965D9BFECF8CB987
S11322B081918823D1F708951BBA1ABA8FEE88BB8F
S11322C08FEB87BB15BA14BA12BA8EEF81BB08958F
S11322D0F8941BBA1ABA8FEE88BB8FEB87BB15BA7A
S11322E014BA12BA8EEF81BB0E94D3100E94E2107E
S11322F015BE1BBE19BE08954F925F926F927F92D6
S11323008F929F92AF92BF92CF92DF92EF92FF9201
S11323100F931F93DF93CF93CDB7DEB72E970FB6EE
S1132320F894DEBF0FBECDBF88EE93E028EB30E01B
S1132330F9013197F1F70197D9F70E946811929A40
S11323408DE00E94F1108AE00E94F1108DE00E945D
S1132350F1108AE00E94F1108EEA94E00E94431189
S11323608DE00E94F1108AE00E94F11086E894E06A
S11323700E9443118DE00E94F1108AE00E94F11046
S113238088E594E00E9443118DE00E94F1108AE0F8
S11323900E94F1101092AB0200E010E00E94610F65
S11323A0882399F00F5F1F4F0A301105B9F7813068
S11323B039F0823021F484E294E00E944311FFCF8B
S11323C081E494E00E944311FACF8091AB02823001
S11323D009F4DAC2833009F4D2C2813009F4CAC2E2
S11323E087E993E00E94431180E58DB9709A83E3F5
S11323F097E00197F1F70E94BE03882309F0C9C250
S1132400CC24C3943E010894611C711C8E01025FAC
S11324101F4FB1E08B2E912CA12CB12CA8EE4A2E8B
S1132420A3E05A2E25C0813309F43AC2823309F459
S1132430FEC1803309F4DAC18DE00E94F1108AE014
S11324400E94F1108DE00E94F1108AE00E94F110C8
S113245081EC91E00E9443118DE00E94F1108AE02A
S11324600E94F1108DE00E94F1108AE00E94F110A8
S11324708DE00E94F1108AE00E94F11085E793E05C
S11324800E9443118DE00E94F1108AE00E94F11035
S11324900E94EC108DE00E94F1108AE00E94F1107D
S11324A082E693E00E9443118DE00E94F1108AE0DD
S11324B00E94F11089E493E00E9443118DE00E9490
S11324C0F1108AE00E94F11081E393E00E9443112D
S11324D08DE00E94F1108AE00E94F1108DE193E0FA
S11324E00E9443118DE00E94F1108AE00E94F110D5
S11324F08DE093E00E9443118DE00E94F1108AE088
S11325000E94F1108CEF92E00E9443118DE00E9432
S1132510F1108AE00E94F1108AEE92E00E944311C9
S11325208DE00E94F1108AE00E94F1108FEB92E09E
S11325300E9443118DE00E94F1108AE00E94F11084
S11325408DE00E94F1108AE00E94F11087EA92E087
S11325500E9443110E94EC10D82E0E94F1108D2D80
S11325608553853018F4CC2009F423C18D2D805374
S1132570853008F474C08092A1029092A202A092C5
S1132580A302B092A4028D2D853309F423C18633AE
S113259008F449CF8D2D893308F005C18DE00E94E0
S11325A0F1108AE00E94F1108DE00E94F1108AE09F
S11325B00E94F11088EE91E00E944311F301119200
S11325C0E017F107E1F7EE24FF240E94EC10982FA6
S11325D08D3071F18830C1F080528F35B0F7892F7A
S11325E09E870E94F110F301EE0DFF1D9E859083DE
S11325F00894E11CF11C8DE0E816F10431F782ED3A
S113260091E00E9443112ECFE114F104F1F288E02D
S11326100E94F11080E20E94F11088E00E94F11003
S11326200894E108F1080E94EC10982F8D3091F67F
S11326308DE0E816F10408F015CF8DE00E94F1104A
S11326408AE00E94F1108D2D863309F48EC18D2D00
S1132650873309F486C1C3010E94D30903CF8DE0F7
S11326600E94F1108AE00E94F1108DE00E94F110A6
S11326708AE00E94F1108BE692E00E9443110E94CE
S1132680EC10E82E0E94F1102E2D30E02F703070E7
S1132690249DC001259D900D349D900D1124AA27E1
S11326A097FDA095BA2F8093960090939700A093DE
S11326B09800B09399000E94EC10E82E0E94F1104B
S11326C06091960070919700809198009091990084
S11326D04E2D50E04F705070E4E6F0E04E9F9001B4
S11326E04F9F300D5E9F300D1124442737FD4095D8
S11326F0542F260F371F481F591F209396003093DD
S1132700970040939800509399000E94EC10E82E93
S11327100E94F1106091960070919700809198004A
S1132720909199004E2D50E04F7050709A01220FF5
S1132730331F440F551F440F551F440F551F240FBB
S1132740351F442737FD4095542F260F371F481F48
S1132750591F20939600309397004093980050930C
S113276099000E94EC10E82E0E94F110209196002E
S11327703091970040919800509199008E2D8F7060
S1132780280F311D411D511D209396003093970051
S113279040939800509399008DE00E94F1108AE0D4
S11327A00E94F110E8CE893309F046CE0E9431062A
S11327B059CE8DE00E94F1108AE00E94F1108DE064
S11327C00E94F1108AE00E94F1108FE892E00E94CA
S11327D043114ECE8DE00E94F1108AE00E94F11068
S11327E080E060E070E00E94CA073CCE60919600F1
S11327F07091970080919800909199002091A10286
S11328003091A2024091A3025091A4020E9412109E
S1132810E82E8DE00E94F1108AE00E94F110EE2073
S113282009F490C08CE592E00E9443111BCE6091A4
S113283096007091970080919800909199000E9461
S11328404510E82E8DE00E94F1108AE00E94F110FC
S1132850EE2009F081C0EE24FF240BC080810E9489
S1132860F1100894E11CF11C80E0E81682E0F806FF
S113287031F0F701E656FF4F80818E3779F78DE00E
S11328800E94F1108AE00E94F1108DE00E94F11084
S11328908AE00E94F1108AEF91E00E944311E2CD98
S11328A08DE00E94F1108AE00E94F1108AE392E028
S11328B00E944311EE24FF2408C080E0E81682E061
S11328C0F80611F18D2D8E37F9F00E94EC10D82EF8
S11328D00E94F110F701E656FF4FD0820894E11CE4
S11328E0F11C8D2D8D3049F78AE00E94F110F7011B
S11328F0E656FF4F8AE080830894E11CF11C80E0D7
S1132900E81682E0F806F1F660919600709197005F
S113291080919800909199000E947B10E82E8DE0A0
S11329200E94F1108AE00E94F1108DE00E94F110E3
S11329308AE00E94F110EE2051F08BE292E00E94B6
S1132940431190CD84E592E00E9443118BCD89E13F
S113295092E00E94431186CD8BE092E00E944311E5
S113296081CDC3010E94D70A7DCD80E0B3010E94CE
S1132970E10978CD89EF93E00E94431135CD81EBD5
S113298093E00E94431130CD8CED93E00E944311FB
S11329902BCD8DE00E94F1108AE00E94F11086E8B0
S11329A093E00E944311CC243E010894611C711CE5
S11329B08E01025F1F4F2DCD629FD001739FF001E6
S11329C0829FE00DF11D649FE00DF11D929FF00DBB
S11329D0839FF00D749FF00D659FF00D9927729FF2
S11329E0B00DE11DF91F639FB00DE11DF91FBD017D
S11329F0CF0111240895A1E21A2EAA1BBB1BFD01CD
S1132A000DC0AA1FBB1FEE1FFF1FA217B307E407C9
S1132A10F50720F0A21BB30BE40BF50B661F771F21
S1132A20881F991F1A9469F7609570958095909501
S1112A309B01AC01BD01CF010895F894FFCFC6
S1132A3E2020202020202020202020202020427909
S1132A4E7465730030782020202020202020000080
S9030000FC
