S013000061767238384C6F676765722E73726563F8
S113000019C028C027C026C025C024C023C022C0D0
S113001021C020C01FC01EC01DC01CC01BC01AC0F0
S113002097C018C0D5C016C0FFC027C013C012C0E7
S113003011C010C011241FBECFEFD4E0DEBFCDBF6E
S113004011E0A0E0B1E001C01D92A235B107E1F7D3
S113005002D07DC1D5CF8CEF8AB987E790E00ED16D
S113006063D07894AAD08FEF9FE3ABE081509040A7
S1130070A040E1F700C00000F6CF1F920F920FB628
S11300800F9211248F939F93EF93FF935B9B31C047
S11300905B98E0910801F0E080917900E050FF4F17
S11300A0808380917C00806480937C0080917C00BC
S11300B0806280937C0090917C0080910801892B60
S11300C080937C00809108018F5F80930801809168
S11300D00801883081F080917A00806480937A00EE
S11300E0FF91EF919F918F910F900FBE0F901F90F2
S11300F018955B9ACECF10920801F2CF5B9A1092BA
S11301000801ECE7F0E08081806480838081806274
S11301108083908180910801892B8083EAE7F0E055
S11301208081806480830895EAE7F0E080818760BD
S11301308083ACE7B0E08C9180648C938C91806276
S11301408C93808180688083808188608083089517
S11301501F920F920FB60F9211242F933F934F9338
S11301605F936F937F938F939F93AF93BF93EF931B
S1130170FF938CE486BD5A991EC05A9ABFDF81E46E
S1130180B2D080910B0190910C01019690930C01D7
S113019080930B01FF91EF91BF91AF919F918F914C
S11301A07F916F915F914F913F912F910F900FBE6F
S11301B00F901F9018955A98E1CF14BC84E085BD28
S11301C08CE486BDEEE6F0E0808181608083089552
S11301D01F920F920FB60F9211242F938F939F9318
S11301E0EF93FF932091C0009091C600E0912F01FE
S11301F0EF5FEF7180913001E817A1F0822F8871D1
S1130200E0932F01F0E0EF5CFE4F90838093510167
S1130210FF91EF919F918F912F910F900FBE0F90AF
S11302201F90189582E0F2CF1F920F920FB60F9293
S113023011248F939F93EF93FF9390910D018091DD
S11302400E019817A9F0E0910E01EF5FEF71E093B2
S11302500E01F0E0E15FFE4F80818093C600FF91C4
S1130260EF919F918F910F900FBE0F901F90189553
S11302708091C1008F7D8093C100F1CF10920D0158
S113028010920E0110922F011092300197FF04C0BA
S113029022E02093C0009F779093C5008093C40010
S11302A088E98093C10086E08093C200089590910C
S11302B02F0180913001981791F0E0913001EF5FA8
S11302C0EF71E0933001F0E0EF5CFE4F808190919C
S11302D05101392F20E0280F311DC901089520E074
S11302E031E0C901089520910D012F5F2F71909184
S11302F00E012917E1F3E22FF0E0E15FFE4F808366
S113030020930D018091C10080628093C100089503
S1130310CF93DF93EC018881882329F02196E3DFD2
S113032089918823E1F7DF91CF910895CF93DF93EB
S1130330EC01FC018491882339F02196D4DFFE017D
S1130340219684918823D1F7DF91CF910895F89471
S1050350FFCFD9
S9030000FC
