:100000000C942A000C94B3000C94BD000C94450091
:100010000C9445000C9445000C9445000C9445004C
:100020000C9445000C94C7000C9445000C94EE0011
:100030000C9445000C9445000C9445000C9445002C
:100040000C9445000C9445000C9445000C9445001C
:100050000C94450011241FBECFE5D4E0DEBFCDBF18
:1000600010E0A0E6B0E0ECE8F9E002C005900D92E7
:10007000AC36B107D9F710E0ACE6B0E001C01D9294
:10008000AB3AB107E1F70C9413010C9400005D9BAF
:10009000FECF8CB90895CF93DF93EC01888188233C
:1000A00049F02196992787FD90950E944700888105
:1000B0008823B9F780E090E0DF91CF9108955F9BAE
:1000C000FECF8CB199270895982F809196008032A9
:1000D000A0F480919400E82FFF27EC58FF4F908305
:1000E0008F5F80939400809194008F71809394002F
:1000F000809196008F5F809396000895CF93DF9351
:10010000CDB7DEB722970FB6F894DEBF0FBECDBFD6
:100110008FEF9FEF9A838983809196008823C1F0A7
:1001200090919500E92FFF27EC58FF4F8081282FF1
:1001300033279F5F909395003A83298380919500A0
:100140008F718093950080919600815080939600E6
:1001500089819A8122960FB6F894DEBF0FBECDBF7B
:10016000DF91CF9108951F920F920FB60F92112435
:100170000F900FBE0F901F9018951F920F920FB601
:100180000F9211240F900FBE0F901F9018951F9281
:100190000F920FB60F9211248F939F938DE382BF1E
:1001A00080916C00882321F0AC9A10926C0006C0FC
:1001B000AC9880916C008F5F80936C00809172008E
:1001C00090917300019690937300809372009F91B9
:1001D0008F910F900FBE0F901F9018951F920F9246
:1001E0000FB60F9211242F933F934F935F936F930A
:1001F0007F938F939F93AF93BF93EF93FF938CB1B4
:100200000E946400FF91EF91BF91AF919F918F91F8
:100210007F916F915F914F913F912F910F900FBE02
:100220000F901F901895CFE5D4E0DEBFCDBF83E3DC
:1002300089B910BC1BB886E880BD88E98AB911BAB3
:1002400080E384BB17BA8FEF88BB15BA85E083BF04
:100250008DE382BF89B7816089BF8AE085BF80EC6A
:100260008BBF789480E690E00E944B0007E610E098
:10027000C7E9D0E08091720090917300805991405D
:10028000C8F31092730010927200809170009091E8
:1002900071009F938F931F930F93DF93CF930E94CF
:1002A0006B0187E990E00E944B0010926F00109262
:1002B0006E0010926D008DB79EB706960FB6F8943B
:1002C0009EBF0FBE8DBF80917200909173008059C8
:1002D000914080F2D6CF0F931F93CF93DF93CDB78A
:1002E000DEB72E970FB6F894DEBF0FBECDBF0D89D7
:1002F0001E892F89388D86E08C831A8309838FEFBE
:100300009FE79E838D83AE01475E5F4FB901CE01AB
:1003100001960E949B01EF81F885E00FF11F10828A
:100320002E960FB6F894DEBF0FBECDBFDF91CF91F2
:100330001F910F9108952F923F924F925F926F926B
:100340007F928F929F92AF92BF92CF92DF92EF9265
:10035000FF920F931F93CF93DF93CDB7DEB76297D2
:100360000FB6F894DEBF0FBECDBFEE24FF24870189
:100370001C017E876D872A01CC24DD24FC01D782F5
:10038000C682838181FD68C28FEF9FEF78C28D8521
:100390009E8501969E878D87C0FE4BC28F858053B8
:1003A0008A30D0F49F85903339F4662029F4C3FC59
:1003B00003C0E0E0F1E08DC08AE0689E602C11246B
:1003C000FF856F0E20ED620E67FE02C05FE7652EAF
:1003D000C3FC42C2762C40C2C3FE04C0662011F4A6
:1003E00041E0642EEF858E2F992787FD9095883602
:1003F00091058CF5853691050CF06EC0833591051D
:1004000009F493C084359105CCF48B32910509F43D
:1004100049C08C3291054CF48032910509F446C0F4
:100420008332910509F44AC0FEC18D32910509F469
:1004300040C08E32910509F444C0F5C18336910560
:1004400009F450C0843691050CF08AC088359105B6
:1004500009F4BCC0E8C18037910509F4B1C0813707
:10046000910584F48C36910591F18D3691052CF42B
:100470008936910509F474C0D6C18F36910509F407
:100480009CC0D1C18537910509F4A2C0863791057A
:1004900024F48337910571F1C6C18837910509F4B9
:1004A00095C0C1C180E190E0C82AD92AE0E2F0E01D
:1004B00010C080E890E0C82AD92ACEC1E0E4F0E07C
:1004C00008C088E090E0C82AD92A6624C5C1E4E0C3
:1004D000F0E0CE2ADF2AC0C13FE3E32E7A94F3E6B0
:1004E000FF873CC1F20182E090E0480E591EE08097
:1004F0007A9434C1F20182E090E0480E591EA08146
:10050000B1817D01C3FE09C0862D992787FD909595
:10051000BC01CD010E946C041FC0FD0101900020B0
:10052000E9F73197EA1BE88B18C0F20182E090E00E
:10053000480E591E0190F081E02D7F01C3FE09C0D5
:10054000862D992787FD9095BC01CF010E946104FB
:1005500003C0CF010E945804888B9889791AFEC085
:10056000C2FE0AC0F20184E090E0480E591E2081CC
:100570003181428153810CC0F20182E090E0480E4B
:10058000591E808191819C01442737FD4095542F4D
:1005900079018A0157FF0CC0E2E0F0E0CE2ADF2AA1
:1005A00010950095F094E094E11CF11C011D111DC3
:1005B0008FEB9FEFC822D92227C098E0988B08C004
:1005C000E0E4F0E0CE2ADF2AF8E7FF8720E1288B7D
:1005D000C2FE0AC0F20184E090E0480E591E20815C
:1005E0003181428153810AC0F20182E090E0480EDD
:1005F000591E808191819C014427552779018A01E8
:10060000EFECFFEFCE22DF22CE0101969A8B898B91
:100610009889892E9924AA24BB24C801B701A50171
:1006200094010E94A404DC01CB01E989FA8980834A
:100630008A3024F0FF858F0F815201C0805DE989E7
:10064000FA898193FA8BE98BC801B701A50194015E
:100650000E94A40479018A01211531054105510543
:10066000E1F6E98881E090E08C0F9D1FE81AC60151
:1006700082739070892B09F07A94C6FE0DC0872D85
:10068000992787FD9095E889E03121F42EEF722EAD
:10069000780E02C0782E7A94C3FE0FC0262D332721
:1006A00027FD30958E2D9927821793072CF087EF21
:1006B0009FEFC822D92201C06E18C3FE02C076186F
:1006C00001C07E18C60180789170892B51F4872D66
:1006D0007A94181634F4B10180E290E00E94770415
:1006E000F6CFC1FE04C0B1018DE290E00BC0C4FEA4
:1006F00004C0B1018BE290E005C0C5FE05C0B101A8
:1007000080E290E00E947704C6FE10C0B10180E351
:1007100090E00E9477049889903141F4B101EF850F
:100720008E2F992787FD90950E947704D0FE0AC0EE
:10073000872D7A94181634F4B10180E390E00E947A
:100740007704F6CFC3FE0AC0862D6A94181634F4D7
:10075000B10180E390E00E947704F6CF90E8B92ED3
:10076000BC2051F4872D7A94181634F4B10180E23C
:1007700090E00E947704F6CFFF85F33641F48E2D8A
:10078000B101992787FD90950E94770440C02F857D
:100790002337B1F488898150888B8F3FC1F1F701ED
:1007A00080810894E11CF11CB101992787FD909587
:1007B0000E94770498899150988B9F3F81F727C0BA
:1007C000EF85E33579F4F889F150F88BFF3FF9F0C4
:1007D000F7018491B10199270E9477040894E11CE4
:1007E000F11CF1CF6E010894C11CD11C89899A8932
:1007F0008C159D0561F0E989FA898291FA8BE98B64
:10080000B101992787FD90950E947704EFCFBB2017
:1008100069F0872D7A9418164CF4B10180E290E0CB
:100820000E947704F6CFB1010E947704CC24DD2426
:1008300013C09F85953241F481E0C82ED12C6624E7
:10084000762CEAE0E88B08C0B101FF858F2F99274D
:1008500087FD90950E947704F101838183FF04C096
:10086000ED85FE85F49103C0ED85FE85F081FF875F
:100870002F85222309F08BCDF10186819781629625
:100880000FB6F894DEBF0FBECDBFDF91CF911F91A1
:100890000F91FF90EF90DF90CF90BF90AF909F901F
:1008A0008F907F906F905F904F903F902F90089522
:1008B000FC0105900020E9F7809590958E0F9F1F11
:1008C0000895FC010590615070400110D8F78095A3
:1008D00090958E0F9F1F0895FC016150704001900C
:1008E0000110D8F7809590958E0F9F1F08950F9354
:1008F0001F93CF93DF938C01EB018B81992781FFAD
:100900001CC082FF0DC02E813F818C819D812817E4
:10091000390764F4E881F9810193F983E88306C01B
:10092000E885F985802F0995892B39F48E819F817F
:1009300001969F838E83C80102C08FEF9FEFDF91E6
:10094000CF911F910F910895A1E21A2EAA1BBB1BF4
:10095000FD010DC0AA1FBB1FEE1FFF1FA217B3078B
:10096000E407F50720F0A21BB30BE40BF50B661FA1
:10097000771F881F991F1A9469F760957095809565
:0C09800090959B01AC01BD01CF010895D2
:0C098C00424F4F540D0A0025640A000081
:00000001FF
