:100000000BC024C022C021C020C01FC02BC01DC0F7
:100010001CC01BC01AC019C011241FBECFEDCDBF1C
:1000200010E0A0E6B0E0ECEDF0E003C0C89531963A
:100030000D92A036B107D1F710E0A0E6B0E001C004
:100040001D92A236B107E1F738C0DACF1F920F92A6
:100050000FB60F921124109260000F900FBE0F90F8
:100060001F9018951F920F920FB60F9211248F9325
:100070008CE982BF809161008823A1F0D89A109208
:10008000610080916000843138F4809160008F5F5E
:1000900080936000D9980BC0809161008823D1F3D0
:1000A000D99A05C0D89881E080936100EACF8F91FA
:1000B0000F900FBE0F901F901895CFEDD0E0DEBFD0
:1000C000CDBF8FEF8ABB81E08BBB85E083BF8CE91E
:0C00D00082BF89B7826089BF7894FFCF9F
:00000001FF
