S016000064617368636F6E74726F6C6C65722E737265632A
S113000019C033C032C031C030C02FC02EC02DC083
S11300102CC02BC02AC029C028C027C026C025C098
S113002024C023C022C021C020C01FC01EC01DC0C8
S11300301CC01BC011241FBECFEFD4E0DEBFCDBF58
S113004011E0A0E0B1E0E2E1F1E002C005900D9220
S1130050A030B107D9F711E0A0E0B1E001C01D92D2
S1130060A030B107E1F702D052C0CACF8FE08AB9FD
S113007080917A00876080937A0080917C0080640C
S113008080937C0080917C00806280937C0010923D
S11300907B0080917A00806880937A0080917A0056
S11300A0806480937A0040E050E024EC39E071E011
S11300B0C9010197F1F78BB18F608BB9442391F497
S11300C0572741E099B189B1827069B190FD13C09D
S11300D05523C1F4882319F48FE48BB9E9CF8FE059
S11300E08BB9E6CF443189F440E099B189B182708B
S11300F069B190FFEDCF882379F362FDF0CF8FE8EB
S11301008BB9D6CF8FE28BB9D3CF4F5FDBCFF894C7
S1050110FFCF1B
S9030000FC
