S00D00006D723136322E737265639F
S11300000C9438000C9453000C9453000C9453003B
S11300100C9453000C9453000C9453000C94530010
S11300200C9453000C9453000C9453000C94530000
S11300300C9453000C9453000C9453000C945300F0
S11300400C9453000C9453000C9453000C945300E0
S11300500C9453000C9453000C9453000C945300D0
S11300600C9453000C9453000C9453000C945300C0
S113007011241FBECFEFD4E0DEBFCDBF11E0A0E05E
S1130080B1E0EAE3F1E002C005900D92A030B107BF
S1130090D9F711E0A0E0B1E001C01D92A030B10792
S11300A0E1F70C9488000C94000001972FEF8F3F28
S11300B0920749F027E93CE2285030404FEF2F3FA8
S11300C03407D1F7F2CF08958FEF8ABB87BB84BB87
S11300D081BB86B908958FEF8BBB88BB85BB82BB80
S11300E087B908951BBA18BA15BA12BA17B8089581
S11300F0CF93C5E0C59884E190E00E945500C59A6D
S113010084E190E00E945500C150A1F7CF91089579
S1130110CFEFD4E0DEBFCDBF0E9464000E94780020
S11301200E946B0088EC90E00E9455000E947200CF
S10D013088EC90E00E945500F3CF24
S9030000FC
