S01400006D65676132353630746573742E73726563E9
S11300000C94F3000C9414010C9414010C9414013A
S11300100C9414010C9414010C9414010C94140108
S11300200C9414010C9416010C9420010C942A01D4
S11300300C9414010C9414010C9414010C941401E8
S11300400C9414010C9414010C9414010C941401D8
S11300500C94D2090C9414010C9414010C949C0972
S11300600C9414010C940F0D0C9414010C94DC0CDE
S11300700C9414010C9411030C9414010C941401A9
S11300800C9414010C9414010C9414010C94140198
S11300900C940D0E0C9414010C94D90D0C941401B1
S11300A00C9414010C9414010C9414010C94140178
S11300B00C9414010C9414010C9414010C94140168
S11300C00C9414010C9414010C9414010C94000F5E
S11300D00C9414010C94CC0E0C941B100C9414016D
S11300E00C94E70F6E616E00696E660000407A1032
S11300F0F35A00A0724E18090010A5D4E80000E8D5
S11301007648170000E40B54020000CA9A3B000032
S113011000E1F505000080969800000040420F00C1
S11301200000A08601000000102700000000E80382
S1130130000000006400000000000A00000000004D
S11301400100000000002C76D888DC674F0823DF0C
S1130150C1DFAE59E1B1B796E5E3E453C63AE651DF
S1130160997696E8E6C28426EB898C9B62ED407C06
S11301706FFCEFBC9C9F40F2BAA56FA5F490055AA2
S11301802AF75C936B6CF9676DC11BFCE0E40D47C7
S1130190FEF520E6B500D0ED902E030094357705EA
S11301A00080841E080000204E0A000000C80C33A2
S11301B03333330F986E12831141EF8D2114893B31
S11301C0E65516CFFEE6DB18D1844B381BF77C1DB1
S11301D0901DA4BBE424203284725E228100C9F104
S11301E024ECA1E53D2711241FBECFEFD1E2DEBFF1
S11301F0CDBF00E00CBF13E0A0E0B2E0EEEBFFE205
S113020000E00BBF02C007900D92AA32B107D9F7E4
S113021017E0AAE2B3E001C01D92AB38B107E1F7E1
S11302200E9471150C94DD170C9400001F920F921C
S11302300FB60F9211240F900FBE0F901F901895B8
S11302401F920F920FB60F9211240F900FBE0F90B2
S11302501F9018951F920F920FB60F9211240F90B2
S11302600FBE0F901F90189508950895CF93DF93B4
S113027081E090E00E94C717D82F80E090E00E94B0
S1130280C71780958D1779F060E081E090E00E94B7
S1130290CF176FEF80E090E00E94CF17C0E08C2F63
S11302A0DF91CF910895C82FCF5F6C2F81E090E04C
S11302B00E94CF176C2F609580E090E00E94CF17CA
S11302C08C2FDF91CF910895CF93DF93CDB7DEB715
S11302D0C456D1090FB6F894DEBF0FBECDBF6091EE
S11302E0350384E89DE00E94FA0A8AE30E94840DA3
S11302F06091C60484E89DE00E94FA0A8DE00E94A1
S1130300840D8AE00E94840D8DE5E6E0F2E0DE01D2
S1130310119601900D928A95E1F7FE01E25AFF4F82
S113032087E0DF011D928A95E9F7BE016F5F7F4F79
S113033084E89DE00E94A90ACC59DF4F0FB6F894D7
S1130340DEBF0FBECDBFDF91CF910895CF92DF9274
S1130350EF92FF920F931F93CF93DF93CDB7DEB746
S1130360C055D1090FB6F894DEBF0FBECDBFF090D3
S11303700607E0900707D09008070E943601C82EB0
S11303801F92DF921F92EF921F92FF921F928F9300
S113039024E932E03F932F938E010F5F1F4F1F9389
S11303A00F930E943817B80181E99FE00E94A90ABF
S11303B02FEF83EC99E0215080409040E1F700C09A
S11303C000001F92DF921F92EF921F92FF921F92E2
S11303D0CF9280EB92E09F938F931F930F930E9491
S11303E03817B80181E99FE00E94A90A2FEF83EC36
S11303F099E0215080409040E1F700C000000FB622
S1130400F894DEBF0FBECDBFC05BDF4F0FB6F894CC
S1130410DEBF0FBECDBFDF91CF911F910F91FF9033
S1130420EF90DF90CF900895CF93DF93CDB7DEB7F1
S1130430C155D1090FB6F894DEBF0FBECDBF629689
S11304401FAE6297CE018F5A9F4F0E94B40D811147
S113045003C062961FAE629780912D0390912E0384
S11304608230910509F468C080F08330910509F465
S113047058C00497B9F1CF5ADF4F0FB6F894DEBFD6
S11304800FBECDBFDF91CF910895009711F1019771
S113049091F762968FAD62978C3409F458C08C360C
S11304A009F455C0843409F470C0843609F46DC06D
S11304B0823509F471C0823709F46EC0863409F4B8
S11304C04DC0863609F44AC08823A9F20E9464010B
S11304D0D2CF0E94640181E090E090932E03809338
S11304E02D03C9CF62968FAD62978B3121F610929E
S11304F02E0310922D032FEF89E698E121508040BE
S11305009040E1F700C000008AE189838A838B83ED
S113051043E0BE016F5F7F4F81E99FE00E947F0A45
S1130520D5CF62968FAD62978B3109F0A4CF10922C
S11305302E0310922D039FCF62968FAD62978B315D
S1130540B1F3882309F497CF0E94910F94CF82E0EE
S113055090E090932E0380932D038DCF85E090E05F
S113056090932E0380932D038AE0EFECF2E0DE01FA
S1130570119601900D928A95E1F7BE016F5F7F4F4E
S113058081E99FE00E94A90A76CF83E090E09093EE
S11305902E0380932D036FCF0E94A60110922A038D
S11305A010922C0310922B0384E090E090932E037E
S11305B080932D0360CFEF92FF920F931F93CF93FD
S11305C0DF9393E0E92E92E0F92E00E012E0C0E020
S11305D0D0E0FE01E958F94FA081F70181917F0134
S11305E0B0E0A81BB10924E630E00E949615F8019A
S11305F021918F0130E040E050E00E949D15FE0102
S1130600EE0FFF1FE150F94F318320832196C33051
S1130610D105F9F6DF91CF911F910F91FF90EF90E3
S113062008951F920F920FB60F9211240BB60F92DA
S11306301BBEEF92FF920F931F932F933F934F9301
S11306405F936F937F938F939F93AF93BF93CF9356
S1130650DF93EF93FF93E091300390912F03809108
S1130660790020E1E29FF0011124E90FF11DE15826
S1130670F94F8083809130038F5F809330038091A2
S11306803003883031F180917C0090913003807F79
S1130690892B80937C0080917A00806480937A0017
S11306A0FF91EF91DF91CF91BF91AF919F918F9186
S11306B07F916F915F914F913F912F911F910F9176
S11306C0FF90EF900F900BBE0F900FBE0F901F90F6
S11306D018951092300380912F038F5F80932F031E
S11306E080912F03803179F610922F0360E070E03F
S11306F020E030E080E090E0DC01AB0142955295CF
S1130700507F5427407F5427FA01E20FF31FE1582A
S1130710F94FE0818E0F911DA11DB11D2F5F3F4F39
S11307202031310589F7F4E0B695A795979587951B
S1130730FA95D1F7FB01E958F94F80836F5F7F4F3A
S113074068307105A9F653E0E52E52E0F52E00E07D
S113075012E0C0E0D0E0FE01E958F94FA081F701B2
S113076081917F01B0E0A81BB10924E630E00E942A
S11307709615F80121918F0130E040E050E00E948D
S11307809D15FE01EE0FFF1FE150F94F31832083C9
S11307902196C330D105F9F683CF1092300310921D
S11307A02F03ECE7F0E0808190913003807F892B68
S11307B08083EAE7F0E0808180648083089540E0EC
S11307C050E080E090E09A0122953295307F322704
S11307D0207F3227F901E80FF91FE158F94F108201
S11307E0019680319105B1F7FA01E958F94F108269
S11307F04F5F5F4F4830510521F780917A00876041
S113080080937A0080917C00806480937C00809146
S11308107C00806280937C0080917A008068809361
S11308207A0080917A00886080937A000895EF922C
S1130830FF920F931F93CF93DF93CDB7DEB7AA97A1
S11308400FB6F894DEBF0FBECDBF7C018B018CE1E7
S1130850EAE6F2E0DE01119601900D928A95E1F745
S11308608EE0E6E8F2E0DE015D9601900D928A9555
S1130870E1F72FEF89E698E1215080409040E1F7BD
S113088000C0000080E895E2F7011995FFEF23EC22
S113089089E0F15020408040E1F700C000004CE1C5
S11308A0BE016F5F7F4FC8010E947F0A9FEFE3EC98
S11308B0F9E09150E040F040E1F700C000004CE165
S11308C0BE016F5F7F4FC8010E947F0A2FEF83EC48
S11308D099E0215080409040E1F700C000004CE1D5
S11308E0BE016F5F7F4FC8010E947F0AEFEFF3ECF8
S11308F029E0E150F0402040E1F700C0000080E032
S113090096E9F7011995FFEF23EC89E0F1502040B7
S11309108040E1F700C000004EE0BE01635E7F4FFF
S1130920C8010E947F0A9FEFE3ECF9E09150E04098
S1130930F040E1F700C000004EE0BE01635E7F4F6F
S1130940C8010E947F0A2FEF83EC99E02150804078
S11309509040E1F700C000004EE0BE01635E7F4FAF
S1130960C8010E947F0A8FE380930B0780931307CB
S1130970AA960FB6F894DEBF0FBECDBFDF91CF911C
S11309801F910F91FF90EF900895EF92FF920F93B4
S11309901F93CF93DF93CDB7DEB7C05AD1090FB6FB
S11309A0F894DEBF0FBECDBF7C01E7E1F7E08381A1
S11309B08F9382818F9381818F9380818F932091F4
S11309C01607822F992787FD90959F932F93E4E133
S11309D0F7E081818F9380818F9320911307822F79
S11309E0992787FD90959F932F93EFE0F7E08381FC
S11309F08F9382818F9381818F9380818F932091B4
S1130A000E07822F992787FD90959F932F93ECE0F3
S1130A10F7E081818F9380818F9320910B07822F40
S1130A20992787FD90959F932F9380910A071F9292
S1130A308F93809109071F928F93809108071F92CB
S1130A408F93809107071F928F93809106071F92BF
S1130A508F9329ED32E03F932F938E010F5F1F4F49
S1130A601F930F930E9438170FB6F894DEBF0FBE82
S1130A70CDBFB801C7010E94A90AC056DF4F0FB607
S1130A80F894DEBF0FBECDBFDF91CF911F910F91C0
S1130A90FF90EF9008956623A1F0FC0180E090E0C0
S1130AA003C09F5F961761F021912C32D1F7A82FD4
S1130AB0B0E0AF5CB84F9C938F5F9F5F9613F4CF09
S1130AC0089580E008956F927F928F929F92AF92E3
S1130AD0BF92CF92DF92EF92FF920F931F93CF9327
S1130AE0DF93EC016623A9F0FC0120E080E003C061
S1130AF08F5F861761F091919C32D1F7A22FB0E0FD
S1130B00AF5CB84F8C932F5F8F5F8613F4CF273081
S1130B1079F0DF91CF911F910F91FF90EF90DF90CB
S1130B20CF90BF90AF909F908F907F906F900895DB
S1130B30809136078F5FFE01E80FF11D80818134BB
S1130B4019F010920507E5CF81E0809305078091A5
S1130B503507982F9F5FFE01E90FF11D90819C32AC
S1130B6009F45AC0292F220F922F990F990F920F2F
S1130B70905E90930607282F2E5FFE01E20FF11D71
S1130B8020812053290F20930607982F9D5FFE0193
S1130B90E90FF11D2081220F922F990F990F920FC7
S1130BA0905E90930707282F2C5FFE01E20FF11D42
S1130BB020812053290F20930707982F9B5FFE0164
S1130BC0E90FF11D2081220F922F990F990F920F97
S1130BD0905E90930807282F2A5FFE01E20FF11D13
S1130BE020812053290F20930807982F985FFE0136
S1130BF0E90FF11D2081220F922F990F990F920F67
S1130C00905E90930907875FFE01E80FF11D8081D4
S1130C108053890F809309077090320760903107E1
S1130C20872D90E0861991090B97C9F07394FE0102
S1130C30E70DF11D808180930B077090340760905D
S1130C403307872D90E0861991090C9709F4D7C0D2
S1130C507394C70DD11D8881809313075ACF862DB5
S1130C608F5FFE01E80FF11D20818AE028029001C8
S1130C701124205E314030930D0720930C07862DFC
S1130C808E5FFE01E80FF11D8081992787FD909505
S1130C90C097820F931F90930D0780930C07862DA6
S1130CA08D5FFE01E80FF11D9081990F892F880F48
S1130CB0880F890F805E80930E07962D9C5FFE013E
S1130CC0E90FF11D90819053980F90930E07862D94
S1130CD08A5FFE01E80FF11DA081BB27A7FDB09537
S1130CE0D09720E137E20E9496154B015C01609396
S1130CF00F07709310078093110790931207862DA6
S1130D00895FFE01E80FF11DA081BB27A7FDB09507
S1130D10D09728EE33E00E9496156B017C01C80C35
S1130D20D91CEA1CFB1CC0920F07D0921007E0925A
S1130D301107F0921207862D885FFE01E80FF11D5E
S1130D40A081BB27A7FDB095D09724E630E00E9490
S1130D5096156C0D7D1D8E1D9F1D60930F0770935E
S1130D6010078093110790931207262D275FFE0129
S1130D70E20FF11DC080DD24C7FCD09420E3C21A29
S1130D80D108EE24D7FCE094FE2CCC0CDD1CEE1C28
S1130D90FF1C46015701880C991CAA1CBB1C880C1B
S1130DA0991CAA1CBB1C8C0C9D1CAE1CBF1C860E63
S1130DB0971EA81EB91E80920F0790921007A0924A
S1130DC01107B0921207862D865FFE01E80FF11D10
S1130DD00081112707FD109500531109222717FDE3
S1130DE02095322F080D191D2A1D3B1D00930F0756
S1130DF010931007209311073093120717CF862DF5
S1130E008F5FFE01E80FF11D808134E68302C0018B
S1130E101124805C92419093150780931407262D2A
S1130E202E5FFE01E20FF11D20813AE02302800DC6
S1130E30911D1124805E91409093150780931407AF
S1130E40262D2D5FFE01E20FF11D2081332727FDA2
S1130E50309520533109280F391F309315072093FB
S1130E601407862D8C5FFE01E80FF11D9081990F08
S1130E70892F880F880F890F805E80931607962D1F
S1130E809B5FFE01E90FF11D90819053980F9093A1
S1130E901607862D895FFE01E80FF11DA081BB278F
S1130EA0A7FDB095D09720E137E20E9496154B013B
S1130EB05C01609317077093180780931907909348
S1130EC01A07862D885FFE01E80FF11DA081BB275C
S1130ED0A7FDB095D09728EE33E00E9496156B01DC
S1130EE07C01C80CD91CEA1CFB1CC0921707D092C9
S1130EF01807E0921907F0921A07862D875FFE0102
S1130F00E80FF11DA081BB27A7FDB095D09724E67B
S1130F1030E00E9496156C0D7D1D8E1D9F1D609303
S1130F201707709318078093190790931A07262DB3
S1130F30265FFE01E20FF11DC080DD24C7FCD094C2
S1130F4020E3C21AD108EE24D7FCE094FE2CCC0C8A
S1130F50DD1CEE1CFF1C46015701880C991CAA1CC1
S1130F60BB1C880C991CAA1CBB1C8C0C9D1CAE1CA5
S1130F70BF1C860E971EA81EB91E8092170790925A
S1130F801807A0921907B0921A07862D855FFE01F3
S1130F90E80FF11D0081112707FD10950053110979
S1130FA0222717FD2095322F080D191D2A1D3B1DE0
S1130FB000931707109318072093190730931A0703
S1130FC047CECF93DF9300D0CDB7DEB76623A9F029
S1130FD0FC0140E020E003C02F5F261761F031914F
S1130FE03C32D1F7A42FB0E0AF5CB84F2C934F5FE5
S1130FF02F5F2613F4CF493041F010920A070F9067
S11310000F900F90DF91CF910895209137072F5FB4
S1131010FC01E20FF11D30813C3279F33E3269F379
S113102040E0E1E0F0E0EC0FFD1FE40FF11D308340
S11310304F5F2F5FFC01E20FF11D30813E3289F7D3
S1131040413099F04230B1F04330B9F68B81805D84
S1131050998124E6929F800D11249A812AE0929F1F
S1131060800D112480930A07CACF8981805380930D
S11310700A07C5CF8A81805199812AE0929F800D09
S1131080112480930A07BBCF623040F1FC013196F2
S11310909C012E5F3F4F462F4250240F311D40E0EC
S11310A051914527E217F307D9F7FC01E60FF11D2B
S11310B09181892F80538A3008F087508295807FF0
S11310C09281292F20532A3030F4982F920F81E0F7
S11310D0941380E008959753980FF9CF40E0E5CF3B
S11310E0CF9320913103309132032430310509F438
S11310F0C5C088F02730310509F479C0B0F4253033
S1131100310509F461C02630310509F44AC081E093
S113111090E00E94DD172130310509F49BC0E0F412
S1131120843209F4DBC0CF9108952830310509F4E5
S113113072C02930310559F78D3009F4B3C02F9AA4
S113114090913303E92FF0E0E55CF84F80839F5FD3
S113115090933303CF9108952230310579F02330F1
S11311603105A9F6873409F4D6C0863509F4C2C01E
S11311701092320310923103CF9108958035C1F754
S113118090913303E92FF0E0E55CF84F80839F5F93
S11311909093330383E090E0909332038093310380
S11311A0C2CF843529F790913303E92FF0E0E55C51
S11311B0F84F80839F5F9093330387E090E0909390
S11311C0320380933103AFCF8C3491F69091330383
S11311D0E92FF0E0E55CF84F80839F5F9093330341
S11311E088E090E090933203809331039CCF87345E
S11311F009F0BECF90913303E92FF0E0E55CF84F9E
S113120080839F5F9093330389E090E0909332034F
S11312108093310388CF8D3009F091CF2F9860915E
S11312203303E62FF0E0E55CF84F108210923203AE
S113123010923103C62FC3506C2F8BE397E00E94AA
S11312404408882309F46FCF6C2F8BE397E0CF9188
S11312500C946305873409F08BCF90913303E92F05
S1131260F0E0E55CF84F80839F5F9093330382E066
S113127090E0909332038093310355CF8C3409F07E
S113128077CF90913303E92FF0E0E55CF84F80834A
S11312909F5F9093330385E090E0909332038093B3
S11312A0310341CF2F9860913303E62FF0E0E55CE2
S11312B0F84F10821092320310923103C62FC3509C
S11312C06C2F8BE397E00E944408882309F42BCF0A
S11312D06C2F8BE397E0CF910C94E10780933B074D
S11312E081E08093330381E090E090933203809314
S11312F0310319CF90913303E92FF0E0E55CF84F07
S113130080839F5F9093330386E090E09093320351
S11313108093310308CF90913303E92FF0E0E55C2B
S1131320F84F80839F5F9093330384E090E0909321
S1131330320380933103F7CE1F920F920FB60F92B0
S113134011240BB60F921BBE2F933F934F935F93C1
S11313506F937F938F939F93AF93BF93EF93FF9379
S11313608EE586BD809134038330B1F08F5F809326
S11313703403FF91EF91BF91AF919F918F917F9132
S11313806F915F914F913F912F910F900BBE0F90F2
S11313900FBE0F901F901895109234038AE20E949A
S11313A0840DE7CF1F920F920FB60F9211240BB644
S11313B00F921BBE2F933F934F935F936F937F9333
S11313C08F939F93AF93BF93EF93FF9381EF98ED28
S11313D0909385008093840080912D0390912E0337
S11313E08330910509F451C00497A9F00E94CD03FC
S11313F0FF91EF91BF91AF919F918F917F916F91E9
S11314005F914F913F912F910F900BBE0F900FBEA4
S11314100F901F90189580912A038111E7CF48E01F
S113142067E776E081E99FE00E94C10B8CE20E94AD
S1131430910F81E99FE00E94C5048CE20E94910F04
S113144043E050E06FEF76E081E99FE00E94250CD5
S11314508AE00E94910F80910A0781113AC080911D
S11314602C038F5F80932C03893109F0BFCF109236
S11314702C0380912B038F5F80932B03883709F013
S1131480B5CF81E080932A03B1CF48E067E776E0E7
S113149084E89DE00E94C10B8CE20E94840D84E8E4
S11314A09DE00E94C5048CE20E94840D43E050E05C
S11314B06FEF76E084E89DE00E94250C8AE00E94AC
S11314C0840D8DE00E94840D80912D0390912E0354
S11314D08BCF10922A0310922C0310922B0386CFE9
S11314E083E08093810081EF98ED90938500809351
S11314F08400EFE6F0E08081816080830895CF92DC
S1131500DF92EF92FF920F931F93CF93DF937C01AF
S11315104423A9F08B01EB01219641506E01C40EC6
S1131520D11C04C0CC15DD0551F02196F801808151
S11315308E01F70119958111F5CF80E001C081E09A
S1131540DF91CF911F910F91FF90EF90DF90CF909B
S11315500895FF920F931F93CF93DF938C01EB01B8
S1131560F12C05C0F394F8011995882369F0DE0184
S1131570AF0DB11D8C918111F5CF81E0DF91CF9139
S11315801F910F91FF90089580E0DF91CF911F91FB
S11315900F91FF9008950F931F93CF93DF931F92A2
S11315A0CDB7DEB78C01862F82958F708A3088F490
S11315B0805D6983F80119956981862F8F708A305F
S11315C088F0895CF8010F90DF91CF911F910F9102
S11315D01994895C6983F80119956981862F8F7044
S11315E08A3078F7805DF8010F90DF91CF911F91D9
S11315F00F9119940F931F93CF93DF9300D01F92F1
S1131600CDB7DEB78C011F926F9388E193E09F936F
S11316108F93CE0101969F938F930E9438178981EF
S1131620F80119958A81F80119958B81F8011995AA
S11316300F900F900F900F900F900F900F900F90AE
S11316400F900F90DF91CF911F910F9108950F93F9
S11316501F93CF93DF9300D01F921F92CDB7DEB7B5
S11316608C01862F992787FD90959F936F938DE129
S113167093E09F938F93CE0101969F938F930E9443
S113168038178981F80119958A81F80119958B8198
S1131690F80119958C81F80119950F900F900F900E
S11316A00F900F900F900F900F900F900F900F903E
S11316B0DF91CF911F910F9108950F931F93CF93B3
S11316C0DF9300D000D0CDB7DEB78C017F936F934A
S11316D08DE193E09F938F93CE0101969F938F9317
S11316E00E9438178981F80119958A81F8011995A2
S11316F08B81F80119958C81F80119950F900F9041
S11317000F900F900F900F9026960FB6F894DEBFAF
S11317100FBECDBFDF91CF911F910F910895BF925E
S1131720CF92DF92EF92FF920F931F93CF93DF93A9
S11317307C01B42E4423D9F0C42ED12C81E0C81AE4
S1131740D1088B01C0E0D0E003C02196CB1578F41A
S1131750F80161918F01C7010E94CB0ACC15DD0508
S1131760A4F78CE2F70119952196CB1588F3DF9144
S1131770CF911F910F91FF90EF90DF90CF90BF908A
S11317800895BF92CF92DF92EF92FF920F931F932F
S1131790CF93DF937C01B42E4423D9F0C42ED12CF3
S11317A081E0C81AD1088B01C0E0D0E003C02196C3
S11317B0CB1578F4F80161918F01C7010E94FA0AF0
S11317C0CC15DD05A4F78CE2F70119952196CB150C
S11317D088F3DF91CF911F910F91FF90EF90DF90ED
S11317E0CF90BF900895BF92CF92DF92EF92FF9275
S11317F00F931F93CF93DF937C01B42E4423D9F02E
S1131800C42ED12C81E0C81AD1088B01C0E0D0E0ED
S113181003C02196CB1578F4F80161918F01C701BB
S11318200E94270BCC15DD05A4F78CE2F70119956E
S11318302196CB1588F3DF91CF911F910F91FF90E3
S1131840EF90DF90CF90BF900895BF92CF92DF9238
S1131850EF92FF920F931F93CF93DF937C01B42EEB
S11318604423E1F0C42ED12C81E0C81AD1088B01A5
S1131870C0E0D0E003C02196CB1580F4F80161915B
S113188071918F01C7010E945D0BCC15DD059CF79A
S11318908CE2F70119952196CB1580F3DF91CF9156
S11318A01F910F91FF90EF90DF90CF90BF9008951C
S11318B03F924F925F926F927F928F929F92AF92DC
S11318C0BF92CF92DF92EF92FF920F931F93CF9329
S11318D0DF9300D01F921F92CDB7DEB76C01342E78
S11318E0442309F44EC0442E512C81E0481A510877
S11318F08B01E12CF12C88248394912C8C0E9D1E59
S113190093E2A92E93E0B92E05C0FFEFEF1AFF0A68
S1131910E314B8F53801F80183818F9382818F93A2
S113192081818F9380818F93BF92AF929F928F9288
S11319300E9438178981F60119958A81F601199553
S11319408B81F60119950C5F1F4F0FB6F894DEBF1B
S11319500FBECDBF20E030E0A901F30160817181A9
S1131960828193810E94C51087FD22C0E414F5048E
S113197064F68CE2F6011995FFEFEF1AFF0AE314FF
S113198048F20F900F900F900F900F90DF91CF912E
S11319901F910F91FF90EF90DF90CF90BF90AF9089
S11319A09F908F907F906F905F904F903F9008959D
S11319B08C81F6011995DACF1F920F920FB60F9210
S11319C011240BB60F921BBE8F939F93EF93FF933B
S11319D08091380381110DC010923703FF91EF916C
S11319E09F918F910F900BBE0F900FBE0F901F9081
S11319F0189580913903E82FF0E0E55CFC4F908165
S1131A009093C6008F5F809339038091390380934C
S1131A10390380913803815080933803DFCF1F92BC
S1131A200F920FB60F9211240BB60F921BBE8F9319
S1131A309F93EF93FF93CF93DF931F92CDB7DEB7BE
S1131A4080913B048034A0F08091C600898381E0BA
S1131A50809336030F90DF91CF91FF91EF919F9187
S1131A608F910F900BBE0F900FBE0F901F90189583
S1131A7080913D04E82FF0E09091C600E25CFB4FBA
S1131A8090838F5F80933D0480913D048F73809396
S1131A903D0480913B048F5F80933B04DBCF9C012A
S1131AA040E050E0220F331F441F551F220F331F05
S1131AB0441F551F220F331F441F551F220F331F6E
S1131AC0441F551F60E074E284EF90E00E949D156E
S1131AD0822F81508093C400DA01C9010197A109C2
S1131AE0B109892F9A2FAB2FBB27A7FDBA958093F5
S1131AF0C5001092C00086E08093C20088ED8093F8
S1131B00C100109235030895F894909137039923F6
S1131B1019F19091380390913A03E92FF0E0E55CD4
S1131B20FC4F80839F5F90933A0380913A038093A4
S1131B303A03809138038F5F809338039091380380
S1131B4080913503891718F0789481E00895809185
S1131B50380380933503F8CF8093C60081E08093E7
S1131B603703789481E00895F89420913B0422236C
S1131B70D1F020913C04E22FF0E0E25CFB4F308195
S1131B80FC0130832F5F20933C0480913C048F73CD
S1131B9080933C0480913B0490913B04915090933A
S1131BA03B0478940895789480E0089580913603F6
S1131BB008951F920F920FB60F9211240BB60F9235
S1131BC01BBE8F939F93EF93FF93809180048111A9
S1131BD00DC010927F04FF91EF919F918F910F9010
S1131BE00BBE0F900FBE0F901F901895809181042B
S1131BF0E82FF0E0ED57FB4F90819093CE008F5F7C
S1131C0080938104809181048F71809381048091F9
S1131C108004815080938004DECF1F920F920FB610
S1131C200F9211240BB60F921BBE8F939F93EF93C9
S1131C30FF93CF93DF931F92CDB7DEB78091A304B8
S1131C408032A0F08091CE00898381E080937E046D
S1131C500F90DF91CF91FF91EF919F918F910F9012
S1131C600BBE0F900FBE0F901F9018958091A50486
S1131C70E82FF0E09091CE00EA55FB4F90838F5F00
S1131C808093A5048091A5048F718093A50480910D
S1131C90A3048F5F8093A304DBCF9C0140E050E05A
S1131CA0220F331F441F551F220F331F441F551F7C
S1131CB0220F331F441F551F220F331F441F551F6C
S1131CC060E074E284EF90E00E949D15822F8150C1
S1131CD08093CC00DA01C9010197A109B109892FC8
S1131CE09A2FAB2FBB27A7FDBA958093CD001092F6
S1131CF0C80086E08093CA0088ED8093C9000895E7
S1131D00F89490917F049923D9F0909180049032B3
S1131D10F1F090918204E92FF0E0ED57FB4F8083BE
S1131D209F5F90938204809182048F7180938204D8
S1131D30809180048F5F80938004789481E008957B
S1131D408093CE0081E080937F0478940895789402
S1131D5080E00895F8942091A3042223D1F02091E7
S1131D60A404E22FF0E0EA55FB4F3081FC013083FC
S1131D702F5F2093A4048091A4048F718093A40402
S1131D808091A3049091A30491509093A304789418
S1131D900895789480E008951F920F920FB60F92E1
S1131DA011240BB60F921BBE8F939F93EF93FF9357
S1131DB08091C90481110DC01092C804FF91EF9164
S1131DC09F918F910F900BBE0F900FBE0F901F909D
S1131DD018958091CA04E82FF0E0E453FB4F9081FA
S1131DE09093D6008F5F8093CA048091CA048F7742
S1131DF08093CA048091C90481508093C904DECFC2
S1131E001F920F920FB60F9211240BB60F921BBEA6
S1131E102F933F934F935F936F937F938F939F93EE
S1131E20AF93BF93EF93FF9380912D0390912E0373
S1131E308230910561F185309105B9F0069701F181
S1131E408091D600FF91EF91BF91AF919F918F91B7
S1131E507F916F915F914F913F912F910F900BBEA6
S1131E600F900FBE0F901F9018958091D6008A3066
S1131E7049F786E090E090932E0380932D03E2CF00
S1131E808091D6008E3341F00E94840DDBCF809187
S1131E90D6000E94840DD6CF83E20E94840D8AE08E
S1131EA00E94840D8DE00E94840D81E090E0909367
S1131EB02E0380932D03C6CF9C0140E050E0220FF7
S1131EC0331F441F551F220F331F441F551F220F5A
S1131ED0331F441F551F220F331F441F551F60E03B
S1131EE074E284EF90E00E949D15822F81508093CC
S1131EF0D400DA01C9010197A109B109892F9A2FE8
S1131F00AB2FBB27A7FDBA958093D5001092D000C4
S1131F1086E08093D20088ED8093D1001092C604AD
S1131F200895F8949091C804992329F19091C904D3
S1131F30903841F19091CB04E92FF0E0E453FB4F4A
S1131F4080839F5F9093CB048091CB048F778093A1
S1131F50CB048091C9048F5F8093C9049091C90414
S1131F608091C604891720F48091C9048093C60423
S1131F70789481E008958093D60081E08093C8042A
S1131F8078940895789480E00895F89420914C050D
S1131F902223D1F020914D05E22FF0E0E15BFA4FCE
S1131FA03081FC0130832F5F20934D0580914D05D6
S1131FB08F7780934D0580914C0590914C059150FD
S1131FC090934C0578940895789480E008951F9236
S1131FD00F920FB60F9211240BB60F921BBE8F9364
S1131FE09F93EF93FF938091D10581110DC01092BF
S1131FF0D005FF91EF919F918F910F900BBE0F90A1
S11320000FBE0F901F9018958091D205E82FF0E035
S1132010EC52FA4F9081909336018F5F8093D205F2
S11320208091D2058F718093D2058091D105815022
S11320308093D105DECF1F920F920FB60F92112419
S11320400BB60F921BBE2F933F934F935F936F93E7
S11320507F938F939F93AF93BF93EF93FF9380915D
S113206036010E947008FF91EF91BF91AF919F914B
S11320708F917F916F915F914F913F912F910F902D
S11320800BBE0F900FBE0F901F9018959C0140E05F
S113209050E0220F331F441F551F220F331F441FCC
S11320A0551F220F331F441F551F220F331F441F78
S11320B0551F60E074E284EF90E00E949D15822F2A
S11320C0815080933401DA01C9010197A109B10952
S11320D0892F9A2FAB2FBB27A7FDBA958093350183
S11320E01092300186E08093320188ED80933101B3
S11320F00895F8949091D0059923D9F09091D10541
S11321009032F1F09091D305E92FF0E0EC52FA4FC0
S113211080839F5F9093D3058091D3058F718093C3
S1132120D3058091D1058F5F8093D105789481E0A8
S113213008958093360181E08093D00578940895C2
S1132140789480E00895F8942091F4052223D1F046
S11321502091F505E22FF0E0E950FA4F3081FC01BF
S113216030832F5F2093F5058091F5058F77809359
S1132170F5058091F4059091F40591509093F40540
S113218078940895789480E00895A8E1B0E0EBECA9
S1132190F0E10C94F7156D8B7E8B8F8B988F298BC8
S11321A03A8B4B8B5C8BBE01675F7F4FCE014596AC
S11321B00E94F410BE016F5F7F4FCE0141960E94D2
S11321C0F4108985823058F08981823040F0BE0154
S11321D06F5F7F4FCE0109960E94631101C081E0B9
S11321E06896E2E00C941316CF92DF92EF92DC0132
S11321F0FB01CC901196DC90119712968C9112975A
S11322003FE7E32EE8226E2DA60170E0982F991F78
S11322109927991F13962C91822F880F892B90E070
S113222027FB222720F92183009729F54115510521
S11322306105710511F482E027C082E89FEF938362
S1132240828327E0440F551F661F771F2A95D1F715
S113225083E0808309C0440F551F661F771F828166
S1132260938101979383828341155105610580E42D
S1132270780788F320C08F3F910579F44115510503
S11322806105710519F484E0808319C0E4FE03C07C
S113229081E0808310C010820EC08F579109938310
S11322A0828383E0808387E0440F551F661F771F76
S11322B08A95D1F770644483558366837783EF905E
S11322C0DF90CF900895CF93FC01DB019081923091
S11322D008F452C08C91823008F44EC0943071F4EA
S11322E0843039F411962C9130E08181281B310916
S11322F048C08181882309F43FC03BC0843029F45D
S113230011968C91811138C034C0923019F4823006
S1132310B9F735C0823069F3C18111968C91119758
S1132320C8131DC02281338112968D919C911397FD
S1132330821793070CF413C0281739070CF417C03D
S1132340448155816681778114968D919D910D907C
S1132350BC91A02D84179507A607B70718F4C111DF
S113236008C00AC0481759076A077B0740F4C1111F
S113237003C02FEF3FEF05C021E030E002C020E0B2
S113238030E0C901CF9108952F923F924F925F920E
S11323906F927F928F929F92AF92BF92CF92DF9271
S11323A0EF92FF920F931F93CF93DF93CDB7DEB7D6
S11323B063970FB6F894DEBF0FBECDBF7C015B01FF
S11323C08A01FC0117821682838181FD03C06DC3DB
S11323D0860105C088248394912C8C0E9D1EF701E0
S11323E09381F50193FD859193FF81915F0188238A
S11323F009F457C3853239F493FD859193FF819194
S11324005F01853231F4B70190E00E940C17680136
S1132410DFCF412C512C20E02032A8F48B3261F024
S113242028F4803251F0833271F40BC08D3239F0CC
S1132430803349F4216028C02260246025C02860CC
S113244023C0206121C027FD27C0382F30533A30E4
S113245078F426FF06C0FAE04F9E300D1124432E77
S113246013C08AE0589E300D1124532E20620CC0F4
S11324708E3221F426FD15C3206406C08C3611F477
S1132480206802C0883641F4F50193FD859193FFDD
S113249081915F018111C0CF982F9554933018F426
S11324A02061805E06C0982F9556933008F0A1C134
S11324B02F7E26FD02C056E0452E4FE3742E722275
S11324C0853619F4F0E47F2A07C0863619F420E82B
S11324D0722A02C041104A9477FE07C03BE33415C8
S11324E048F0342C339427E00DC087E0841530F095
S11324F0242D07C027E03CE3332E04C027E097E0F7
S1132500492E312C680194E0C90ED11CF801608178
S1132510718182819381032DA4010E941E168C0176
S113252029812C8720FF02C023FF07C071FC08C04B
S113253072FE09C080E2682E07C0BDE26B2E04C0A3
S1132540ABE26A2E01C0612C8C858C70A1F16620EF
S113255011F084E001C083E0851510F0512C0BC00C
S1132560581A73FC08C0B70180E290E00E940C176F
S11325705A94C9F7F3CF662029F0B701862D90E06D
S11325800E940C173C8533FD03C008EE10E00CC01C
S113259004EE10E009C071108052B70190E00E946F
S11325A00C170F5F1F4F02C080E17822F80184915D
S11325B08111F1CF73C277FE0EC0300E2C8524FF3B
S11325C004C08A81813309F43A9413144CF538E039
S11325D0331548F12CC076FC2AC0242D30E0201796
S11325E0310744F00C3F8FEF180724F090E8792A64
S11325F001C04A94442049F0E2E0F0E0EC0FFD1FF2
S1132600E40DF11D80818033A1F377FE10C0342CDA
S11326103394242D30E00217130744F4401A07C002
S11326203324339404C0F8E03F2E01C0412C77FEDC
S113263007C0101611063CF498012F5F3F4F05C0E8
S113264025E030E002C021E030E0662011F02F5F89
S11326503F4F442031F0442D50E04F5F5F4F240F33
S1132660351F452D50E02417350714F4521A01C0C4
S1132670512C872D897049F406C0B70180E290E09F
S11326800E940C175A945110F8CF662029F0B70114
S1132690862D90E00E940C1773FC09C006C0B70198
S11326A080E390E00E940C175A945110F8CF77FE03
S11326B053C0380117FF02C0612C712C1E861D8681
S11326C0980123193109388B2F87180126183708E8
S11326D0280C391C642D70E022273327261B370B66
S11326E03A8B298B3FEF6316730629F4B7018EE208
S11326F090E00E940C17061517055CF02F853889A9
S11327002615370534F4ED85FE85E20DF31D818130
S113271001C080E331E0631A71082D853E852F5F87
S11327203F4F3E872D8729893A89621673062CF01C
S1132730B70190E00E940C17D5CF6016710649F4DA
S11327409A81963328F4953321F43C8534FD01C0F5
S113275081E3B70190E04AC08A81813319F02C8566
S11327602F7E2C87B70190E00E940C17411005C002
S113277074FE16C085E490E015C0B7018EE290E0C7
S11327800E940C17E2E06E2EF401E60DF11D639435
S1132790B701808190E00E940C174A94A9F7E8CF12
S11327A085E690E0B7010E940C1717FD06C00115DD
S11327B0110541F43C8534FF05C0119501951109BB
S11327C08DE201C08BE2B70190E00E940C1780E318
S11327D003C08F5F0A5011090A301105D4F7B701FD
S11327E090E00E940C17B701C801C0960E940C1714
S11327F055C1833631F0833781F0833509F05EC0EB
S113280024C0680182E0C80ED11CF801808189834C
S113281066246394712C840114C06801F2E0CF0E25
S1132820D11CF8010081118126FF03C0642D70E0E2
S113283002C06FEF7FEFC8012B8B0E9401173C0190
S11328402B896FE7462E422217C06801F2E0CF0EB3
S1132850D11CF8010081118126FF03C0642D70E0B2
S113286002C06FEF7FEFC8012B8B0E94F6163C016C
S11328702B8950E8452E422A43FC1CC006C0B701F0
S113288080E290E00E940C175A94852D90E068161F
S11328907906A8F30FC0F80147FC859147FE8191A2
S11328A08F01B70190E00E940C1751105A94F1E087
S11328B06F1A71086114710471F7F0C0843611F055
S11328C0893661F5680127FF09C034E0C30ED11CC5
S11328D0F80160817181828193810AC0F2E0CF0E98
S11328E0D11CF80160817181882777FD8095982F2C
S11328F04FE6742E722297FF09C0909580957095CB
S113290061957F4F8F4F9F4FF0E87F2A2AE030E098
S1132910A4010E946917682E681847C0853731F4EE
S11329203FEE732E72222AE030E024C099EF792E14
S113293072228F36B9F020F4883509F0B2C00DC088
S1132940803721F0883709F0ACC002C020E1722A38
S113295074FE0BC034E0732A08C024FF09C086E06B
S1132960782A06C028E030E005C020E130E002C04B
S113297020E132E0680177FE09C094E0C90ED11C61
S1132980F801608171818281938108C0F2E0CF0EE9
S1132990D11CF8016081718180E090E0A4010E9463
S11329A06917682E6818FFE77F2276FE0BC0072D93
S11329B00E7F641450F474FE0AC072FC08C0072D24
S11329C00E7E05C0162D072D03C0162D01C0142D33
S11329D004FF0CC0FE01E60DF11D8081803311F46B
S11329E0097E08C002FF05C01E5F04C0802F8678E0
S11329F009F01F5F03FD12C000FF0DC0462C151522
S1132A0050F4450C411A152D06C0B70180E290E040
S1132A100E940C171F5F1515C0F304C0151510F4A0
S1132A20511A01C0512C04FF10C0B70180E390E09B
S1132A300E940C1702FF1EC001FF03C088E590E04E
S1132A4002C088E790E0B7010CC0802F867891F02F
S1132A5001FD02C080E201C08BE207FD8DE2B701F7
S1132A6090E00E940C1706C0B70180E390E00E943A
S1132A700C174A946414C0F36A94F401E60DF11D32
S1132A80B701808190E00E940C176110F5CF06C059
S1132A90B70180E290E00E940C175A945110F8CFCD
S1132AA097CCF7012681378102C02FEF3FEFC90190
S1132AB063960FB6F894DEBF0FBECDBFDF91CF9102
S1132AC01F910F91FF90EF90DF90CF90BF90AF9048
S1132AD09F908F907F906F905F904F903F902F903A
S1132AE008958FEF84B982E08DB98093040110BA00
S1132AF01092070180EC80936D0084E0809368005D
S1132B00789480E091EE0E944F0D80E091EE0E9457
S1132B105C0F0E94DF030E94700A69E770E186E49B
S1132B2090E10E9417040E941402FDCF0E94B9157F
S1132B30B7FF0895821B930B0895052E97FB16F497
S1132B40009407D057FD0DD00E94C51507FC09D08D
S1132B507EF490958095709561957F4F8F4F9F4F30
S1132B60089550954095309521953F4F4F4F5F4FB5
S1132B700895A29FB001B39FC001A39F01D0B29F4B
S1132B80700D811D1124911D0895A1E21A2EAA1B16
S1132B90BB1BFD010DC0AA1FBB1FEE1FFF1FA21709
S1132BA0B307E407F50720F0A21BB30BE40BF50B06
S1132BB0661F771F881F991F1A9469F7609570958F
S1132BC0809590959B01AC01BD01CF0108952F9292
S1132BD03F924F925F926F927F928F929F92AF92A9
S1132BE0BF92CF92DF92EF92FF920F931F93CF93F6
S1132BF0DF93CDB7DEB7CA1BDB0B0FB6F894DEBF8D
S1132C000FBECDBF19942A88398848885F846E84A2
S1132C107D848C849B84AA84B984C884DF80EE80FC
S1132C20FD800C811B81AA81B981CE0FD11D0FB605
S1132C30F894DEBF0FBECDBFED010895283008F033
S1132C4027E03327DA01990F311D87FD9160009643
S1132C506105710539F432602E5F3D9330E32A95A6
S1132C60E1F708959F3F30F080387105610509F060
S1132C703C5F3C5F3D93913008F08068911DDF9389
S1132C80CF931F930F93FF92EF92192F987F9695EE
S1132C90E92F96959695E90FFF27EA5BFE4F992752
S1132CA03327EE24FF24A701E70105900894079435
S1132CB028F4360FE71EF81E491F511D660F771FB3
S1132CC0881F991F0694A1F70590079428F4E70E2E
S1132CD0F81E491F561FC11D770F881F991F661FB5
S1132CE00694A1F70590079428F4F80E491F561F7F
S1132CF0C71FD11D880F991F661F771F0694A1F760
S1132D000590079420F4490F561FC71FD81F990F29
S1132D10661F771F881F0694A9F784911095177072
S1132D2041F0D695C79557954795F794E7941A952A
S1132D30C1F7ECEEF0E0689415901591359165912A
S1132D40959105907FE27395E118F10A430B560BB8
S1132D50C90BD009C0F7E10CF11E431F561FC91F50
S1132D60D01D7EF4703311F48A95E6CFE8940150B7
S1132D7030F0080F0AF40027021708F4202F2395D7
S1132D80022F7A3328F079E37D932A95E9F710C06E
S1132D907D932A9589F606949795679537951795A7
S1132DA01794E118F10A430B560BC90BD00998F09C
S1132DB023957E9173957A3308F070E37C93201306
S1132DC0B8F77E9170617D9330F0839571E37D93C4
S1132DD070E32A95E1F71124EF90FF900F911F9172
S1132DE0CF91DF91992787FD90950895FC01059077
S1132DF0615070400110D8F7809590958E0F9F1FF9
S1132E000895FC016150704001900110D8F780953D
S1132E1090958E0F9F1F08950F931F93CF93DF9369
S1132E208C01EB018B8181FD03C00FEF1FEF1AC0F2
S1132E3082FF0DC02E813F818C819D812817390727
S1132E4064F4E881F9810193F983E88306C0E88595
S1132E50F985802F1995892B41F78E819F810196E1
S1132E609F838E83C801DF91CF911F910F910895A5
S1132E700F931F93CF93DF93CDB7DEB760970FB651
S1132E80F894DEBF0FBECDBF088D198D86E08C830C
S1132E901A8309838FEF9FE79E838D83AE01445E7F
S1132EA05F4F588B4F876A8D7B8DCE0101960E94B0
S1132EB0C411EF81F885E00FF11F108260960FB600
S1132EC0F894DEBF0FBECDBFDF91CF911F910F915C
S1132ED00895FA01AA27283051F1203181F1E894AC
S1132EE06F936E7F6E5F7F4F8F4F9F4FAF4FB1E0F9
S1132EF03ED0B4E03CD0670F781F891F9A1FA11DF4
S1132F00680F791F8A1F911DA11D6A0F711D811DF4
S1132F10911DA11D20D009F468943F912AE0269FB9
S1132F2011243019305D3193DEF6CF010895462F18
S1132F304770405D4193B3E00FD0C9F7F6CF462FF9
S1132F404F70405D4A3318F0495D31FD4052419362
S1132F5002D0A9F7EACFB4E0A6959795879577951F
S1132F606795BA95C9F700976105710508959B01A6
S1132F70AC010A2E06945795479537952795BA952F
S1132F80C9F7620F731F841F951FA01D0895F99937
S1132F90FECF92BD81BDF89A992780B50895262F5A
S1132FA0F999FECF1FBA92BD81BD20BD0FB6F8942A
S1112FB0FA9AF99A0FBE01960895F894FFCF8D
S1132FBE2A292A4859530A0D0A0D44203A204C69ED
S1132FCE766520446174612053747265616D0A0DD7
S1132FDE4C203A204C6F676765722050617373748E
S1132FEE68726F7567680A0D52203A205265636FD6
S1132FFE726420446174610A0D3C4553433E203A89
S113300E2053746F7020616E642052657475726EF5
S113301E0A0D0000000000000000B5620600140056
S113302E01000000D0080000009600000700030015
S113303E000000009390B56206080600C800010067
S113304E0100DE6A0D0D6E6577202530327825304D
S113305E327525303275253032752E6C6F670D0042
S113306E0D0D617070656E64202530327825303216
S113307E7525303275253032752E6C6F670D006CE8
S113308E73202A2E6C6F670D00253032752C253077
S113309E32752C253032752E253032752C25303371
S11330AE752C25632C253032642C253032752E2553
S11330BE30356C752C25632C253033642C25303239
S11330CE752E2530356C75002530337500252B3063
S10D30DE34640025312E3166000031
S9030000FC
