:1000000019C033C032C031C030C02FC02EC02DC087
:100010002CC02BC02AC029C028C027C026C025C09C
:1000200024C023C022C021C020C0ABC01EC01DC040
:100030001CC01BC011241FBECFEFD4E0DEBFCDBF5C
:1000400011E0A0E0B1E0E8EEF2E002C005900D9210
:10005000AC30B107D9F711E0ACE0B1E001C01D92BE
:10006000A038B107E1F72ED03DC1CACF9C01855C15
:1000700090408B32910520F18AE0A901445F504005
:100080004435510508F482E0A9014C5751404237EC
:10009000510508F483E0A9014C5F51404C385105EB
:1000A00008F484E0A9014B5E52404D37510508F435
:1000B00085E0215733402334310508F486E0089564
:1000C00081E0DBCF9F92AF92BF92CF92DF92EF920F
:1000D000FF920F931F93DF93CF9300D000D00F9226
:1000E000CDB7DEB78FEF8AB98EE087B9D6D0CFD043
:1000F000BB249AE0992E20E07E010894E11CF11CBB
:100100008E010B5F1F4FA0900A018AE6C82E88E17E
:10011000D82EC6010197F1F7809115019091160133
:100120002D83A4DF2D81F701E20FF11D80832F5F66
:100130002370F70131E09191981330E0E017F10757
:10014000D1F78A3091F0332381F0BB24E82FF0E01F
:10015000E050FF4F90819BB9982F9150963058F402
:10016000982F990F98B9982ED4CF8B2D803330F4D7
:10017000B394892DEBCF982E18B8CBCFABB818B865
:10018000C8CF1F920F920FB60F9211242F933F9357
:100190005F936F937F938F939F93AF93BF93EF93EF
:1001A000FF938091780090917900392F20E090E0C2
:1001B000822B932B90931601809315018091170148
:1001C0008F5F8093170180911B01882309F05AC02B
:1001D00015B880911B018F5F80931B01209118013E
:1001E000309119018091150190911601820F931F92
:1001F0009093190180931801809118019091190131
:10020000E0911A01F0E0EE0FFF1FE45EFE4F208147
:100210003181821B930B9093190180931801E09117
:100220001A01F0E08091150190911601EE0FFF1F69
:10023000E45EFE4F9183808380911A018F5F8093EB
:100240001A0180911A01823311F410921A018091DF
:1002500018019091190162E370E030D0709316019B
:1002600060931501FF91EF91BF91AF919F918F9195
:100270007F916F915F913F912F910F900FBE0F90E3
:100280001F9018958FEF85B910921B01A7CFEAE751
:10029000F0E0808180648083089580E480937C0016
:1002A000EAE7F0E08FE98083808180628083EBE77A
:1002B000F0E08081887F808378940895AA1BBB1B1F
:1002C00051E107C0AA1FBB1FA617B70710F0A61B56
:1002D000B70B881F991F5A95A9F780959095BC0177
:0802E000CD010895F894FFCF51
:0C02E800C0F9A4B0999282F88098FF0041
:00000001FF
