S0150000636172636F6E74726F6C6C65722E7372656395
S11300000C942A000C94CF000C94F7000C94470035
S11300100C9447000C9447000C9447000C94470040
S11300200C94EC010C946B010C9447000C948A0220
S11300300C9447000C9447000C9408020C9447005D
S11300400C9447000C9447000C941F010C94470037
S11300500C94470011241FBECFE5D4E0DEBFCDBF12
S113006011E0A0E6B0E0E2E0F0E102C005900D92FC
S1130070A430B107D9F711E0A4E0B1E001C01D92AA
S1130080A137B107E1F70E94B3040C94FF070C9465
S11300900000CF93DF9380910B0190910C012FEF1F
S11300A08F3F920709F469C080910D0190910E0170
S11300B02FEF8F3F920709F460C080910F01909158
S11300C010012FEF8F3F920709F457C081E080930E
S11300D00A0120910B0130910C0140E050E0609145
S11300E00D0170910E0180E090E0620F731F841F78
S11300F0951F9695879577956795709305016093FD
S1130100040120910F0130911001309307012093D5
S1130110060140910401509105012091060130919E
S113012007012417350748F08FEF9FEF90930901DB
S113013080930801DF91CF910895209106013091B9
S1130140070140E050E0621B730B840B950BC091D8
S11301500601D091070124E630E040E050E00E941F
S1130160DD049E0140E050E00E94FC04309309014C
S113017020930801DF91CF91089510920A01109203
S113018005011092040110920701109206011092C9
S1130190090110920801DF91CF91089508951F92EB
S11301A00F920FB60F9211242F933F938F939F9327
S11301B02CB53DB580911B0190911C0190931401C5
S11301C08093130130931C0120931B01281B390BCE
S11301D030930C0120930B01109223019F918F9176
S11301E03F912F910F900FBE0F901F9018951F9263
S11301F00F920FB60F9211242F933F938F939F93D7
S11302002CB53DB580911D0190911E01909316016E
S11302108093150130931E0120931D01281B390B77
S113022030930E0120930D01109224019F918F9120
S11302303F912F910F900FBE0F901F9018951F9212
S11302400F920FB60F9211242F933F938F939F9386
S11302502CB53DB580911F01909120019093180118
S1130260809317013093200120931F01281B390B21
S11302703093100120930F01109225019F918F91CB
S11302803F912F910F900FBE0F901F901895E3E2AE
S1130290F1E080E090E02FEF3FEF4081443640F4FE
S11302A04F5F40830196319684309105B1F70895EC
S11302B0DC01AA0FBB1FA55FBE4F11963C932E9382
S11302C0F1CF85B78F6085BF84B7806484BF8BB757
S11302D0806E8BBF08951F920F920FB60F92112458
S11302E02F933F934F935F936F937F938F939F933A
S11302F0AF93BF93EF93FF9388EF82BF8091270161
S1130300909128018431910509F45FC0019690937E
S113031028018093270180912B01882379F1AC9ADD
S113032010922B010E9447018091290190912A018A
S1130330019690932A018093290180912C01909138
S11303406000891761F18F5F80932C0180912E01E9
S11303508431C9F08F5F80932E01FF91EF91BF919B
S1130360AF919F918F917F916F915F914F913F9149
S11303702F910F900FBE0F901F901895AC9881E0AD
S113038080932B01CFCF10922E0180912F018823CF
S1130390B9F4AF9881E080932F0180E0DBCF109215
S11303A02C0180912D01882329F0AE9A10922D0101
S11303B080E0C9CFAE9881E080932D0180E0C3CF67
S11303C0AF9A10922F0180E0C5CF0E9435020E949F
S11303D0490081E090E09BCF1F920F920FB60F92DD
S11303E011241DBC1CBC0F900FBE0F901F901895BC
S11303F085E083BF88EF82BF89B7816089BF1FBC56
S113040083E08EBD1DBC1CBC89B7846089BF089580
S11304101F920F920FB60F9211248F939F93EF9315
S1130420FF93E7B1F0E0EF71F07085B1E05DFE4F4E
S1130430808387B190913801807E892B87B9809120
S11304403801883079F0809138018F5F80933801CA
S1130450369AFF91EF919F918F910F900FBE0F905D
S11304601F90189510923801F4CF87B190913801FC
S1130470807E892B87B9809138018F5F8093380102
S1130480369A089586B1866086B93E9A3D9A379A1F
S1130490369A339A1ABA1BBA08958FE289B910BCF6
S11304A01BB886E880BD88E98AB908955D9BFECFB4
S11304B08CB9282F332727FD3095932F0895FC01FD
S11304C08081882339F031965D9BFECF8CB9819170
S11304D08823D1F780E090E008955F9BFECF8CB134
S11304E00895909139019032A0F490915B01E92F25
S11304F0F0E0E55CFE4F80839F5F90935B01809109
S11305005B018F7180935B01809139018F5F8093D0
S1130510390108951F920F920FB60F9211242F9351
S11305203F934F935F936F937F938F939F93AF9377
S1130530BF93EF93FF938CB10E947102FF91EF91EF
S1130540BF91AF919F918F917F916F915F914F91E7
S11305503F912F910F900FBE0F901F901895DF932E
S1130560CF9300D0CDB7DEB78FEF9FEF9A83898307
S1130570809139018823B9F020913A01E22FF0E00B
S1130580E55CFE4F808190E09A8389832F5F2093FE
S11305903A0180913A018F7180933A018091390137
S11305A081508093390189819A810F900F90CF9166
S11305B0DF910895CF93DF93EC018BE10E94560203
S11305C0CE010E945F02DF91CF9108958DE00E94D9
S11305D0560281E690E00E94DA0285E690E00E94ED
S11305E0DA0281E080935C010895CF93DF9389E67A
S11305F090E00E94DA024091300130913101209163
S113060032018DB79EB70A970FB6F8949EBF0FBEFE
S11306108DBFEDB7FEB73196CDE5D1E0ADB7BEB72E
S11306201296DC93CE9311978CE690E093838283A9
S11306304483158236831782208711860E941E0503
S11306408DB79EB70A960FB6F8949EBF0FBE8DBFA6
S1130650CE010E945F028DE00E9456024091330158
S11306603091340120913501ADB7BEB71A970FB65A
S1130670F894BEBF0FBEADBFEDB7FEB7319612966C
S1130680DC93CE93119781E890E093838283448333
S1130690158236831782208711860E941E058DB726
S11306A09EB70A960FB6F8949EBF0FBE8DBFCE01BB
S11306B00E945F028DE00E94560230913601209123
S11306C03701ADB7BEB718970FB6F894BEBF0FBECB
S11306D0ADBFEDB7FEB731961296DC93CE9311976A
S11306E086E990E09383828334831582268317827C
S11306F00E941E058DB79EB708960FB6F8949EBF4C
S11307000FBE8DBFCE010E945F028DE00E94560293
S113071084EA90E00E945F02DF91CF910895CF9325
S1130720DF9389E690E00E94DA0220910B01309178
S11307300C0180910D0190910E014DB75EB74850A8
S113074050400FB6F8945EBF0FBE4DBFEDB7FEB775
S11307503196CDE5D1E0ADB7BEB71296DC93CE931A
S113076011974DEA50E05383428335832483978362
S113077086830E941E054DB75EB7485F5F4F0FB674
S1130780F8945EBF0FBE4DBFCE010E945F028DE0A4
S11307900E94560220910F013091100180911101A5
S11307A090911201ADB7BEB718970FB6F894BEBFBB
S11307B00FBEADBFEDB7FEB731961296DC93CE9364
S11307C011974BEB50E05383428335832483978303
S11307D086830E941E054DB75EB7485F5F4F0FB614
S11307E0F8945EBF0FBE4DBFCE010E945F028DE044
S11307F00E9456028DE00E94560289EC90E00E940D
S11308005F02DF91CF910895CF93DF9389E690E063
S11308100E94DA02209104013091050180910601C1
S1130820909107014DB75EB7485050400FB6F89409
S11308305EBF0FBE4DBFEDB7FEB73196CDE5D1E03B
S1130840ADB7BEB71296DC93CE93119743ED50E04B
S11308505383428335832483978386830E941E05B2
S11308602DB73EB7285F3F4F0FB6F8943EBF0FBE7B
S11308702DBFCE010E945F028DE00E94560280913E
S113088008019091090140910A01ADB7BEB71897CC
S11308900FB6F894BEBF0FBEADBFEDB7FEB731962D
S11308A01296DC93CE93119723EE30E033832283A8
S11308B095838483468317820E941E052DB73EB715
S11308C0285F3F4F0FB6F8943EBF0FBE2DBFCE0139
S11308D00E945F028DE00E9456028DE00E94560243
S11308E083EF90E00E945F02DF91CF910895989B7F
S11308F015C0999B20C09A9B26C09B9B2CC08091BD
S11309005C018130A9F0813018F40E94F502089549
S1130910823009F008950E940404089510925C0145
S113092085E690E00E94DA0280915C01813059F7FB
S11309300E948F03089581E080935C0185E690E036
S11309400E94DA02DCCF82E080935C0185E690E0CD
S11309500E94DA02D4CF83E080935C0185E690E0C4
S11309600E94DA02CCCFCF93DF930E944D0211BADA
S113097080EF84BB17BA8FEF88BB8FE085BB0E94E2
S1130980F8010E9461010E944202789480E197E29A
S113099028EB30E0F9013197F1F70197D9F70E947C
S11309A0E602C8EBD0E00E94770488E893E1FE01F8
S11309B03197F1F70197D9F7F6CF629FD001739F72
S11309C0F001829FE00DF11D649FE00DF11D929FE7
S11309D0F00D839FF00D749FF00D659FF00D992726
S11309E0729FB00DE11DF91F639FB00DE11DF91F4A
S11309F0BD01CF0111240895A1E21A2EAA1BBB1B2D
S1130A00FD010DC0AA1FBB1FEE1FFF1FA217B307D6
S1130A10E407F50720F0A21BB30BE40BF50B661FEC
S1130A20771F881F991F1A9469F7609570958095B0
S1130A3090959B01AC01BD01CF010895AEE0B0E0FB
S1130A40E4E2F5E00C94D6070D891E8986E08C83D8
S1130A501A8309838FEF9FE79E838D839E01275E10
S1130A603F4FCE0101966F89788DA9010E944105FF
S1130A70EF81F885E00FF11F10822E96E4E00C94CC
S1130A80F207ACE0B0E0E7E4F5E00C94C8076C01D1
S1130A901B018A01FC0117821682838181FFD1C167
S1130AA02E010894411C511CF6019381F10193FD20
S1130AB0859193FF81911F01882309F4BEC185327A
S1130AC039F493FD859193FF81911F01853229F4B7
S1130AD090E0B6010E943E07E7CFEE24FF2420E019
S1130AE02032B0F48B3269F08C3228F4803251F029
S1130AF0833271F40BC08D3239F0803349F42160B4
S1130B002CC02260246029C0286027C0206125C031
S1130B1027FD2CC0382F30533A3098F426FF08C0F4
S1130B208E2D880FE82EEE0CEE0CE80EE30E15C0A9
S1130B308F2D880FF82EFF0CFF0CF80EF30E206299
S1130B400CC08E3221F426FD78C1206406C08C3698
S1130B5011F4206802C0883649F4F10193FD8591AF
S1130B6093FF81911F01882309F0BACF982F9554E0
S1130B70933018F09052933028F40C5F1F4FFFE32A
S1130B80F9830DC0833631F0833771F0833509F072
S1130B9060C022C0F801808189830E5F1F4F42012B
S1130BA071E0A72EB12C16C062E0662E712C600E87
S1130BB0711EF8018080918026FF03C06E2D70E0C5
S1130BC002C06FEF7FEFC4012C870E9433075C01E2
S1130BD083012C852F7717C052E0652E712C600E8F
S1130BE0711EF8018080918026FF03C06E2D70E095
S1130BF002C06FEF7FEFC4012C870E9428075C01BD
S1130C002C852068830123FD20C008C080E290E089
S1130C10B6012C870E943E07FA942C858F2D90E014
S1130C20A816B90698F311C0F40127FD859127FF92
S1130C3081914F0190E0B6012C870E943E072C85DC
S1130C40F110FA940894A108B108A114B10461F751
S1130C50F1C0843611F0893649F527FF08C0F80140
S1130C6060817181828193810C5F1F4F09C0F801FB
S1130C7060817181882777FD8095982F0E5F1F4FC3
S1130C804FE6B42EB22297FF09C0909580957095D7
S1130C9061957F4F8F4F9F4FF0E8BF2AA2012AE052
S1130CA030E00E946A07782E741845C0853731F405
S1130CB03FEEB32EB2222AE030E025C099EFB92EE0
S1130CC0B2228F36C1F0803720F4883509F0B5C0E0
S1130CD00DC0803721F0883709F0AFC002C020E191
S1130CE0B22AB4FE0BC084E0B82A08C0B4FE09C01E
S1130CF0E6E0BE2A06C028E030E005C020E130E08E
S1130D0002C020E132E0B7FE08C0F80160817181C1
S1130D10828193810C5F1F4F07C0F801608171814C
S1130D2080E090E00E5F1F4FA2010E946A07782EB8
S1130D307418FFE7BF22B6FE0BC02EEFB2227E145A
S1130D4038F4B4FE07C0B2FC05C08FEEB82202C06E
S1130D50A72C01C0AE2C8B2D90E0B4FE0DC0FE017B
S1130D60E70DF11D2081203319F4E9EEBE2209C0FC
S1130D70A394B2FE06C004C086789070009709F070
S1130D80A3948B2C9924B3FC14C0B0FE0FC0AF14F1
S1130D9028F4E72CEF0CEA18AF2C08C0E72C06C0A7
S1130DA080E290E0B6010E943E07A394AF14C0F322
S1130DB004C0AF1410F4FA1801C0FF2484FE0FC05D
S1130DC080E390E0B6010E943E0782FE1FC081FED0
S1130DD003C088E590E010C088E790E00DC0C4012E
S1130DE086789070009791F081FC02C080E201C087
S1130DF08BE2B7FC8DE290E0B6010E943E0706C08C
S1130E0080E390E0B6010E943E07EA947E14C0F3AA
S1130E107A94F201E70DF11D808190E0B6010E9401
S1130E203E077720A9F706C080E290E0B6010E9451
S1130E303E07FA94FF20C1F737CEF60126813781A9
S1130E4002C02FEF3FEFC9012C96E2E10C94E407B6
S1130E50FC010590615070400110D8F78095909581
S1130E608E0F9F1F0895FC01615070400190011086
S1130E70D8F7809590958E0F9F1F08950F931F9319
S1130E80CF93DF938C01EB018B8181FF1BC082FF29
S1130E900DC02E813F818C819D812817390764F410
S1130EA0E881F9810193F983E88306C0E885F9852F
S1130EB0802F0995009731F48E819F8101969F833D
S1130EC08E8302C00FEF1FEFC801DF91CF911F91F6
S1130ED00F910895FA01AA27283051F1203181F1A8
S1130EE0E8946F936E7F6E5F7F4F8F4F9F4FAF4F2E
S1130EF0B1E03ED0B4E03CD0670F781F891F9A1F41
S1130F00A11D680F791F8A1F911DA11D6A0F711DF4
S1130F10811D911DA11D20D009F468943F912AE000
S1130F20269F11243019305D3193DEF6CF010895E8
S1130F30462F4770405D4193B3E00FD0C9F7F6CF19
S1130F40462F4F70405D4A3318F0495D31FD4052E1
S1130F50419302D0A9F7EACFB4E0A6959795879577
S1130F6077956795BA95C9F7009761057105089556
S1130F709B01AC010A2E0694579547953795279502
S1130F80BA95C9F7620F731F841F951FA01D08959A
S1130F902F923F924F925F926F927F928F929F9285
S1130FA0AF92BF92CF92DF92EF92FF920F931F9373
S1130FB0CF93DF93CDB7DEB7CA1BDB0B0FB6F89424
S1130FC0DEBF0FBECDBF09942A88398848885F8464
S1130FD06E847D848C849B84AA84B984C884DF80D5
S1130FE0EE80FD800C811B81AA81B981CE0FD11DB9
S1130FF00FB6F894DEBF0FBECDBFED010895F8948F
S1051000FFCF1C
S1131002165B326D005B324A005B4800303A253091
S1131012336420313A2530336420323A2530336444
S113102200333A2530336420343A25303364203592
S11310323A2530336400363A2530336420373A2572
S113104230336400416E616C6F67756500303A2518
S113105230367520313A2530367500323A2530362D
S11310627520333A25303675004672657175656EA2
S113107263790046533A253036752052533A253067
S1131082367500534C3A253036752053543A253080
S11310923375005472616374696F6E20436F6E74AA
S10710A2726F6C00F9
S9030000FC
