S00F0000636170747572652E7372656321
S11300000C9438000C9453000C9453000C9453003B
S11300100C9453000C9453000C9453000C94530010
S11300200C9453000C9453000C9453000C94C10092
S11300300C9453000C9453000C9453000C945300F0
S11300400C9453000C9453000C9453000C94290109
S11300500C9453000C9453000C9453000C945300D0
S11300600C9453000C9453000C9453000C945300C0
S113007011241FBECFEFD4E0DEBFCDBF11E0A0E05E
S1130080B1E0ECE8F4E002C005900D92A030B107B5
S1130090D9F711E0A0E0B1E001C01D92AB33B10784
S11300A0E1F70C949A010C9400005D9BFECF8CB98F
S11300B00895CF93DF93EC018881882349F021963A
S11300C0992787FD90950E94550088818823B9F768
S11300D080E090E0DF91CF9108955F9BFECF8CB1DB
S11300E099270895982F809122018032A0F480915D
S11300F02001E82FFF27E050FF4F90838F5F80930C
S11301002001809120018F71809320018091220130
S11301108F5F809322010895CF93DF93CDB7DEB72D
S113012022970FB6F894DEBF0FBECDBF8FEF9FEFBF
S11301309A838983809122018823C1F090912101BF
S1130140E92FFF27E050FF4F8081282F33279F5F3F
S1130150909321013A832983809121018F718093A7
S113016021018091220181508093220189819A8109
S113017022960FB6F894DEBF0FBECDBFDF91CF91AC
S113018008951F920F920FB60F9211242F933F934D
S11301908F939F938CEE83BD8091330190913401B2
S11301A001969093340180933301809135019091AD
S11301B03601892BA1F48BB38C608BBB8091350104
S11301C090913601805D974041F180913501909185
S11301D036010196909336018093350131C08091A8
S11301E02301282F33278091350190913601281758
S11301F03907C1F080912401282F332780913501DC
S11302009091360128173907C9F6DB98809135019A
S113021090913601805D9740C1F61092360110929C
S113022035010EC0DA9880912401282F332780915C
S11302303501909136012817390709F0BFCFE5CF72
S11302409F918F913F912F910F900FBE0F901F9010
S113025018951F920F920FB60F9211242F933F936C
S11302604F935F936F937F938F939F93AF93BF93BA
S1130270EF93FF938CB10E947200FF91EF91BF91B5
S1130280AF919F918F917F916F915F914F913F912A
S11302902F910F900FBE0F901F901895CF93DF935F
S11302A0CDB7DEB721970FB6F894DEBF0FBECDBF32
S11302B0809128018D34A1F5E09129018E2F81537D
S11302C0843070F5198290912A01892F80538A30E5
S11302D0A8F49295907F8981980F998390912B012E
S11302E0892F80538A30A0F48981980F9053998381
S11302F0FF27EE50FF4F8981808312C0892F8154DC
S1130300863070F49295907F8981980F9057E5CF4D
S1130310892F8154863020F48981980F9753E7CF31
S113032021960FB6F894DEBF0FBECDBFDF91CF91FB
S113033008950895CDEFD4E0DEBFCDBF29E129B9FA
S113034010BC1BB886E880BD88E98AB98FEF8ABBE8
S11303501BBA17BA88BB82E087BD8CEE83BD89B710
S1130360846089BF109234011092330110923A01D3
S11303701092390110922001109221011092220151
S113038010923201109236011092350182E390E00E
S11303909093380180933701209323012093240103
S11303A07894809133019091340180519742E8F020
S11303B01092340110923301D89B39C0D89880919F
S11303C0390190913A01019690933A018093390151
S11303D08091390190913A018536910530F08091F0
S11303E03201882311F0109232010E948C009A830A
S11303F0898389819A8197FDD4CF20913201222368
S1130400C1F489819A818034910569F189819A8145
S11304100E9455008091330190913401805197429C
S113042020F31092340110923301D899C7CFD89A8F
S1130430C6CF80913201813009F0B3CF89819A818E
S11304408397D9F0809131018A30E8F480913101A9
S1130450E82FFF27E95DFE4F29813A8120838F5FD2
S1130460809331019ECF81E08093320110923A0152
S11304701092390120933101C9CF8091270183352E
S10F048011F40E944E01109232018BCF47
S9030000FC
